{
  "contractName": "IxsNft",
  "abi": [
    {
      "inputs": [
        {
          "internalType": "string",
          "name": "name",
          "type": "string"
        },
        {
          "internalType": "string",
          "name": "symbol",
          "type": "string"
        },
        {
          "internalType": "string",
          "name": "baseTokenURI",
          "type": "string"
        },
        {
          "internalType": "uint16",
          "name": "_max_token_number",
          "type": "uint16"
        }
      ],
      "stateMutability": "nonpayable",
      "type": "constructor"
    },
    {
      "anonymous": false,
      "inputs": [
        {
          "indexed": true,
          "internalType": "address",
          "name": "owner",
          "type": "address"
        },
        {
          "indexed": true,
          "internalType": "address",
          "name": "approved",
          "type": "address"
        },
        {
          "indexed": true,
          "internalType": "uint256",
          "name": "tokenId",
          "type": "uint256"
        }
      ],
      "name": "Approval",
      "type": "event"
    },
    {
      "anonymous": false,
      "inputs": [
        {
          "indexed": true,
          "internalType": "address",
          "name": "owner",
          "type": "address"
        },
        {
          "indexed": true,
          "internalType": "address",
          "name": "operator",
          "type": "address"
        },
        {
          "indexed": false,
          "internalType": "bool",
          "name": "approved",
          "type": "bool"
        }
      ],
      "name": "ApprovalForAll",
      "type": "event"
    },
    {
      "anonymous": false,
      "inputs": [
        {
          "indexed": false,
          "internalType": "address",
          "name": "userAddress",
          "type": "address"
        },
        {
          "indexed": false,
          "internalType": "address payable",
          "name": "relayerAddress",
          "type": "address"
        },
        {
          "indexed": false,
          "internalType": "bytes",
          "name": "functionSignature",
          "type": "bytes"
        }
      ],
      "name": "MetaTransactionExecuted",
      "type": "event"
    },
    {
      "anonymous": false,
      "inputs": [
        {
          "indexed": false,
          "internalType": "address",
          "name": "account",
          "type": "address"
        }
      ],
      "name": "Paused",
      "type": "event"
    },
    {
      "anonymous": false,
      "inputs": [
        {
          "indexed": true,
          "internalType": "bytes32",
          "name": "role",
          "type": "bytes32"
        },
        {
          "indexed": true,
          "internalType": "bytes32",
          "name": "previousAdminRole",
          "type": "bytes32"
        },
        {
          "indexed": true,
          "internalType": "bytes32",
          "name": "newAdminRole",
          "type": "bytes32"
        }
      ],
      "name": "RoleAdminChanged",
      "type": "event"
    },
    {
      "anonymous": false,
      "inputs": [
        {
          "indexed": true,
          "internalType": "bytes32",
          "name": "role",
          "type": "bytes32"
        },
        {
          "indexed": true,
          "internalType": "address",
          "name": "account",
          "type": "address"
        },
        {
          "indexed": true,
          "internalType": "address",
          "name": "sender",
          "type": "address"
        }
      ],
      "name": "RoleGranted",
      "type": "event"
    },
    {
      "anonymous": false,
      "inputs": [
        {
          "indexed": true,
          "internalType": "bytes32",
          "name": "role",
          "type": "bytes32"
        },
        {
          "indexed": true,
          "internalType": "address",
          "name": "account",
          "type": "address"
        },
        {
          "indexed": true,
          "internalType": "address",
          "name": "sender",
          "type": "address"
        }
      ],
      "name": "RoleRevoked",
      "type": "event"
    },
    {
      "anonymous": false,
      "inputs": [
        {
          "indexed": true,
          "internalType": "address",
          "name": "from",
          "type": "address"
        },
        {
          "indexed": true,
          "internalType": "address",
          "name": "to",
          "type": "address"
        },
        {
          "indexed": true,
          "internalType": "uint256",
          "name": "tokenId",
          "type": "uint256"
        }
      ],
      "name": "Transfer",
      "type": "event"
    },
    {
      "anonymous": false,
      "inputs": [
        {
          "indexed": false,
          "internalType": "address",
          "name": "account",
          "type": "address"
        }
      ],
      "name": "Unpaused",
      "type": "event"
    },
    {
      "inputs": [],
      "name": "DEFAULT_ADMIN_ROLE",
      "outputs": [
        {
          "internalType": "bytes32",
          "name": "",
          "type": "bytes32"
        }
      ],
      "stateMutability": "view",
      "type": "function",
      "constant": true
    },
    {
      "inputs": [],
      "name": "ERC712_VERSION",
      "outputs": [
        {
          "internalType": "string",
          "name": "",
          "type": "string"
        }
      ],
      "stateMutability": "view",
      "type": "function",
      "constant": true
    },
    {
      "inputs": [],
      "name": "MINTER_ROLE",
      "outputs": [
        {
          "internalType": "bytes32",
          "name": "",
          "type": "bytes32"
        }
      ],
      "stateMutability": "view",
      "type": "function",
      "constant": true
    },
    {
      "inputs": [],
      "name": "PAUSER_ROLE",
      "outputs": [
        {
          "internalType": "bytes32",
          "name": "",
          "type": "bytes32"
        }
      ],
      "stateMutability": "view",
      "type": "function",
      "constant": true
    },
    {
      "inputs": [
        {
          "internalType": "address",
          "name": "to",
          "type": "address"
        },
        {
          "internalType": "uint256",
          "name": "tokenId",
          "type": "uint256"
        }
      ],
      "name": "approve",
      "outputs": [],
      "stateMutability": "nonpayable",
      "type": "function"
    },
    {
      "inputs": [
        {
          "internalType": "address",
          "name": "owner",
          "type": "address"
        }
      ],
      "name": "balanceOf",
      "outputs": [
        {
          "internalType": "uint256",
          "name": "",
          "type": "uint256"
        }
      ],
      "stateMutability": "view",
      "type": "function",
      "constant": true
    },
    {
      "inputs": [
        {
          "internalType": "uint256",
          "name": "tokenId",
          "type": "uint256"
        }
      ],
      "name": "burn",
      "outputs": [],
      "stateMutability": "nonpayable",
      "type": "function"
    },
    {
      "inputs": [
        {
          "internalType": "address",
          "name": "userAddress",
          "type": "address"
        },
        {
          "internalType": "bytes",
          "name": "functionSignature",
          "type": "bytes"
        },
        {
          "internalType": "bytes32",
          "name": "sigR",
          "type": "bytes32"
        },
        {
          "internalType": "bytes32",
          "name": "sigS",
          "type": "bytes32"
        },
        {
          "internalType": "uint8",
          "name": "sigV",
          "type": "uint8"
        }
      ],
      "name": "executeMetaTransaction",
      "outputs": [
        {
          "internalType": "bytes",
          "name": "",
          "type": "bytes"
        }
      ],
      "stateMutability": "payable",
      "type": "function",
      "payable": true
    },
    {
      "inputs": [
        {
          "internalType": "uint256",
          "name": "tokenId",
          "type": "uint256"
        }
      ],
      "name": "getApproved",
      "outputs": [
        {
          "internalType": "address",
          "name": "",
          "type": "address"
        }
      ],
      "stateMutability": "view",
      "type": "function",
      "constant": true
    },
    {
      "inputs": [],
      "name": "getChainId",
      "outputs": [
        {
          "internalType": "uint256",
          "name": "",
          "type": "uint256"
        }
      ],
      "stateMutability": "view",
      "type": "function",
      "constant": true
    },
    {
      "inputs": [],
      "name": "getDomainSeperator",
      "outputs": [
        {
          "internalType": "bytes32",
          "name": "",
          "type": "bytes32"
        }
      ],
      "stateMutability": "view",
      "type": "function",
      "constant": true
    },
    {
      "inputs": [
        {
          "internalType": "address",
          "name": "user",
          "type": "address"
        }
      ],
      "name": "getNonce",
      "outputs": [
        {
          "internalType": "uint256",
          "name": "nonce",
          "type": "uint256"
        }
      ],
      "stateMutability": "view",
      "type": "function",
      "constant": true
    },
    {
      "inputs": [
        {
          "internalType": "bytes32",
          "name": "role",
          "type": "bytes32"
        }
      ],
      "name": "getRoleAdmin",
      "outputs": [
        {
          "internalType": "bytes32",
          "name": "",
          "type": "bytes32"
        }
      ],
      "stateMutability": "view",
      "type": "function",
      "constant": true
    },
    {
      "inputs": [
        {
          "internalType": "bytes32",
          "name": "role",
          "type": "bytes32"
        },
        {
          "internalType": "uint256",
          "name": "index",
          "type": "uint256"
        }
      ],
      "name": "getRoleMember",
      "outputs": [
        {
          "internalType": "address",
          "name": "",
          "type": "address"
        }
      ],
      "stateMutability": "view",
      "type": "function",
      "constant": true
    },
    {
      "inputs": [
        {
          "internalType": "bytes32",
          "name": "role",
          "type": "bytes32"
        }
      ],
      "name": "getRoleMemberCount",
      "outputs": [
        {
          "internalType": "uint256",
          "name": "",
          "type": "uint256"
        }
      ],
      "stateMutability": "view",
      "type": "function",
      "constant": true
    },
    {
      "inputs": [
        {
          "internalType": "bytes32",
          "name": "role",
          "type": "bytes32"
        },
        {
          "internalType": "address",
          "name": "account",
          "type": "address"
        }
      ],
      "name": "grantRole",
      "outputs": [],
      "stateMutability": "nonpayable",
      "type": "function"
    },
    {
      "inputs": [
        {
          "internalType": "bytes32",
          "name": "role",
          "type": "bytes32"
        },
        {
          "internalType": "address",
          "name": "account",
          "type": "address"
        }
      ],
      "name": "hasRole",
      "outputs": [
        {
          "internalType": "bool",
          "name": "",
          "type": "bool"
        }
      ],
      "stateMutability": "view",
      "type": "function",
      "constant": true
    },
    {
      "inputs": [
        {
          "internalType": "address",
          "name": "owner",
          "type": "address"
        },
        {
          "internalType": "address",
          "name": "operator",
          "type": "address"
        }
      ],
      "name": "isApprovedForAll",
      "outputs": [
        {
          "internalType": "bool",
          "name": "",
          "type": "bool"
        }
      ],
      "stateMutability": "view",
      "type": "function",
      "constant": true
    },
    {
      "inputs": [],
      "name": "name",
      "outputs": [
        {
          "internalType": "string",
          "name": "",
          "type": "string"
        }
      ],
      "stateMutability": "view",
      "type": "function",
      "constant": true
    },
    {
      "inputs": [
        {
          "internalType": "uint256",
          "name": "tokenId",
          "type": "uint256"
        }
      ],
      "name": "ownerOf",
      "outputs": [
        {
          "internalType": "address",
          "name": "",
          "type": "address"
        }
      ],
      "stateMutability": "view",
      "type": "function",
      "constant": true
    },
    {
      "inputs": [],
      "name": "paused",
      "outputs": [
        {
          "internalType": "bool",
          "name": "",
          "type": "bool"
        }
      ],
      "stateMutability": "view",
      "type": "function",
      "constant": true
    },
    {
      "inputs": [
        {
          "internalType": "bytes32",
          "name": "role",
          "type": "bytes32"
        },
        {
          "internalType": "address",
          "name": "account",
          "type": "address"
        }
      ],
      "name": "renounceRole",
      "outputs": [],
      "stateMutability": "nonpayable",
      "type": "function"
    },
    {
      "inputs": [
        {
          "internalType": "bytes32",
          "name": "role",
          "type": "bytes32"
        },
        {
          "internalType": "address",
          "name": "account",
          "type": "address"
        }
      ],
      "name": "revokeRole",
      "outputs": [],
      "stateMutability": "nonpayable",
      "type": "function"
    },
    {
      "inputs": [
        {
          "internalType": "address",
          "name": "from",
          "type": "address"
        },
        {
          "internalType": "address",
          "name": "to",
          "type": "address"
        },
        {
          "internalType": "uint256",
          "name": "tokenId",
          "type": "uint256"
        }
      ],
      "name": "safeTransferFrom",
      "outputs": [],
      "stateMutability": "nonpayable",
      "type": "function"
    },
    {
      "inputs": [
        {
          "internalType": "address",
          "name": "from",
          "type": "address"
        },
        {
          "internalType": "address",
          "name": "to",
          "type": "address"
        },
        {
          "internalType": "uint256",
          "name": "tokenId",
          "type": "uint256"
        },
        {
          "internalType": "bytes",
          "name": "_data",
          "type": "bytes"
        }
      ],
      "name": "safeTransferFrom",
      "outputs": [],
      "stateMutability": "nonpayable",
      "type": "function"
    },
    {
      "inputs": [
        {
          "internalType": "address",
          "name": "operator",
          "type": "address"
        },
        {
          "internalType": "bool",
          "name": "approved",
          "type": "bool"
        }
      ],
      "name": "setApprovalForAll",
      "outputs": [],
      "stateMutability": "nonpayable",
      "type": "function"
    },
    {
      "inputs": [],
      "name": "symbol",
      "outputs": [
        {
          "internalType": "string",
          "name": "",
          "type": "string"
        }
      ],
      "stateMutability": "view",
      "type": "function",
      "constant": true
    },
    {
      "inputs": [
        {
          "internalType": "uint256",
          "name": "index",
          "type": "uint256"
        }
      ],
      "name": "tokenByIndex",
      "outputs": [
        {
          "internalType": "uint256",
          "name": "",
          "type": "uint256"
        }
      ],
      "stateMutability": "view",
      "type": "function",
      "constant": true
    },
    {
      "inputs": [
        {
          "internalType": "address",
          "name": "owner",
          "type": "address"
        },
        {
          "internalType": "uint256",
          "name": "index",
          "type": "uint256"
        }
      ],
      "name": "tokenOfOwnerByIndex",
      "outputs": [
        {
          "internalType": "uint256",
          "name": "",
          "type": "uint256"
        }
      ],
      "stateMutability": "view",
      "type": "function",
      "constant": true
    },
    {
      "inputs": [],
      "name": "totalSupply",
      "outputs": [
        {
          "internalType": "uint256",
          "name": "",
          "type": "uint256"
        }
      ],
      "stateMutability": "view",
      "type": "function",
      "constant": true
    },
    {
      "inputs": [
        {
          "internalType": "address",
          "name": "from",
          "type": "address"
        },
        {
          "internalType": "address",
          "name": "to",
          "type": "address"
        },
        {
          "internalType": "uint256",
          "name": "tokenId",
          "type": "uint256"
        }
      ],
      "name": "transferFrom",
      "outputs": [],
      "stateMutability": "nonpayable",
      "type": "function"
    },
    {
      "inputs": [
        {
          "internalType": "address",
          "name": "to",
          "type": "address"
        }
      ],
      "name": "mint",
      "outputs": [],
      "stateMutability": "nonpayable",
      "type": "function"
    },
    {
      "inputs": [
        {
          "internalType": "address",
          "name": "to",
          "type": "address"
        },
        {
          "internalType": "uint256",
          "name": "number",
          "type": "uint256"
        }
      ],
      "name": "batchMint",
      "outputs": [],
      "stateMutability": "nonpayable",
      "type": "function"
    },
    {
      "inputs": [],
      "name": "pause",
      "outputs": [],
      "stateMutability": "nonpayable",
      "type": "function"
    },
    {
      "inputs": [],
      "name": "unpause",
      "outputs": [],
      "stateMutability": "nonpayable",
      "type": "function"
    },
    {
      "inputs": [
        {
          "internalType": "bytes4",
          "name": "interfaceId",
          "type": "bytes4"
        }
      ],
      "name": "supportsInterface",
      "outputs": [
        {
          "internalType": "bool",
          "name": "",
          "type": "bool"
        }
      ],
      "stateMutability": "view",
      "type": "function",
      "constant": true
    },
    {
      "inputs": [
        {
          "internalType": "uint256",
          "name": "tokenId",
          "type": "uint256"
        }
      ],
      "name": "tokenURI",
      "outputs": [
        {
          "internalType": "string",
          "name": "",
          "type": "string"
        }
      ],
      "stateMutability": "view",
      "type": "function",
      "constant": true
    }
  ],
  "bytecode": "0x60a06040526000600c60016101000a81548160ff0219169083151502179055503480156200002c57600080fd5b5060405162006435380380620064358339818101604052810190620000529190620008d2565b838381600290805190602001906200006c92919062000646565b5080600390805190602001906200008592919062000646565b5050506000600c60006101000a81548160ff0219169083151502179055508160109080519060200190620000bb92919062000646565b506001600f60006101000a81548161ffff021916908361ffff1602179055508061ffff1660808161ffff16815250506200010e6000801b62000102620001ab60201b60201c565b620001c760201b60201c565b6200014f7f9f2df0fed2c77648de5860a4cc508cd0818c85b8b8a1ab4ceeef8d981c8956a662000143620001ab60201b60201c565b620001c760201b60201c565b620001907f65d7a28e3265b37a6474929f336521b332c1681b933f6cb9f3376673440d862a62000184620001ab60201b60201c565b620001c760201b60201c565b620001a1846200020f60201b60201c565b5050505062000b46565b6000620001c26200029160201b62001afa1760201c565b905090565b620001de82826200034460201b62001bab1760201c565b6200020a81600160008581526020019081526020016000206200035a60201b62001bb91790919060201c565b505050565b600c60019054906101000a900460ff161562000262576040517f08c379a0000000000000000000000000000000000000000000000000000000008152600401620002599062000a02565b60405180910390fd5b62000273816200039260201b60201c565b6001600c60016101000a81548160ff02191690831515021790555050565b60003073ffffffffffffffffffffffffffffffffffffffff163373ffffffffffffffffffffffffffffffffffffffff1614156200033d57600080368080601f016020809104026020016040519081016040528093929190818152602001838380828437600081840152601f19601f820116905080830192505050505050509050600080369050905073ffffffffffffffffffffffffffffffffffffffff81830151169250505062000341565b3390505b90565b6200035682826200044160201b60201c565b5050565b60006200038a836000018373ffffffffffffffffffffffffffffffffffffffff1660001b6200053260201b60201c565b905092915050565b6040518060800160405280604f8152602001620063e6604f91398051906020012081805190602001206040518060400160405280600181526020017f3100000000000000000000000000000000000000000000000000000000000000815250805190602001203062000409620005ac60201b60201c565b60001b6040516020016200042295949392919062000a84565b60405160208183030381529060405280519060200120600d8190555050565b620004538282620005b960201b60201c565b6200052e57600160008084815260200190815260200160002060000160008373ffffffffffffffffffffffffffffffffffffffff1673ffffffffffffffffffffffffffffffffffffffff16815260200190815260200160002060006101000a81548160ff021916908315150217905550620004d3620001ab60201b60201c565b73ffffffffffffffffffffffffffffffffffffffff168173ffffffffffffffffffffffffffffffffffffffff16837f2f8788117e7eff1d82e926ec794901d17c78024a50270940304540a733656f0d60405160405180910390a45b5050565b60006200054683836200062360201b60201c565b620005a1578260000182908060018154018082558091505060019003906000526020600020016000909190919091505582600001805490508360010160008481526020019081526020016000208190555060019050620005a6565b600090505b92915050565b6000804690508091505090565b600080600084815260200190815260200160002060000160008373ffffffffffffffffffffffffffffffffffffffff1673ffffffffffffffffffffffffffffffffffffffff16815260200190815260200160002060009054906101000a900460ff16905092915050565b600080836001016000848152602001908152602001600020541415905092915050565b828054620006549062000b10565b90600052602060002090601f016020900481019282620006785760008555620006c4565b82601f106200069357805160ff1916838001178555620006c4565b82800160010185558215620006c4579182015b82811115620006c3578251825591602001919060010190620006a6565b5b509050620006d39190620006d7565b5090565b5b80821115620006f2576000816000905550600101620006d8565b5090565b6000604051905090565b600080fd5b600080fd5b600080fd5b600080fd5b6000601f19601f8301169050919050565b7f4e487b7100000000000000000000000000000000000000000000000000000000600052604160045260246000fd5b6200075f8262000714565b810181811067ffffffffffffffff8211171562000781576200078062000725565b5b80604052505050565b600062000796620006f6565b9050620007a4828262000754565b919050565b600067ffffffffffffffff821115620007c757620007c662000725565b5b620007d28262000714565b9050602081019050919050565b60005b83811015620007ff578082015181840152602081019050620007e2565b838111156200080f576000848401525b50505050565b60006200082c6200082684620007a9565b6200078a565b9050828152602081018484840111156200084b576200084a6200070f565b5b62000858848285620007df565b509392505050565b600082601f8301126200087857620008776200070a565b5b81516200088a84826020860162000815565b91505092915050565b600061ffff82169050919050565b620008ac8162000893565b8114620008b857600080fd5b50565b600081519050620008cc81620008a1565b92915050565b60008060008060808587031215620008ef57620008ee62000700565b5b600085015167ffffffffffffffff81111562000910576200090f62000705565b5b6200091e8782880162000860565b945050602085015167ffffffffffffffff81111562000942576200094162000705565b5b620009508782880162000860565b935050604085015167ffffffffffffffff81111562000974576200097362000705565b5b620009828782880162000860565b92505060606200099587828801620008bb565b91505092959194509250565b600082825260208201905092915050565b7f616c726561647920696e69746564000000000000000000000000000000000000600082015250565b6000620009ea600e83620009a1565b9150620009f782620009b2565b602082019050919050565b6000602082019050818103600083015262000a1d81620009db565b9050919050565b6000819050919050565b62000a398162000a24565b82525050565b600073ffffffffffffffffffffffffffffffffffffffff82169050919050565b600062000a6c8262000a3f565b9050919050565b62000a7e8162000a5f565b82525050565b600060a08201905062000a9b600083018862000a2e565b62000aaa602083018762000a2e565b62000ab9604083018662000a2e565b62000ac8606083018562000a73565b62000ad7608083018462000a2e565b9695505050505050565b7f4e487b7100000000000000000000000000000000000000000000000000000000600052602260045260246000fd5b6000600282049050600182168062000b2957607f821691505b6020821081141562000b405762000b3f62000ae1565b5b50919050565b60805161587d62000b696000396000818161114f0152611404015261587d6000f3fe60806040526004361061021a5760003560e01c806343508b051161012357806395d89b41116100ab578063ca15c8731161006f578063ca15c8731461080e578063d53913931461084b578063d547741f14610876578063e63ab1e91461089f578063e985e9c5146108ca5761021a565b806395d89b4114610729578063a217fddf14610754578063a22cb4651461077f578063b88d4fde146107a8578063c87b56dd146107d15761021a565b80636a627842116100f25780636a6278421461063257806370a082311461065b5780638456cb59146106985780639010d07c146106af57806391d14854146106ec5761021a565b806343508b05146105645780634f6ccce71461058d5780635c975abb146105ca5780636352211e146105f55761021a565b8063248a9ca3116101a65780633408e470116101755780633408e470146104a757806336568abe146104d25780633f4ba83a146104fb57806342842e0e1461051257806342966c681461053b5761021a565b8063248a9ca3146103c75780632d0335ab146104045780632f2ff15d146104415780632f745c591461046a5761021a565b80630c53c51c116101ed5780630c53c51c146102ed5780630f7e59701461031d57806318160ddd1461034857806320379ee51461037357806323b872dd1461039e5761021a565b806301ffc9a71461021f57806306fdde031461025c578063081812fc14610287578063095ea7b3146102c4575b600080fd5b34801561022b57600080fd5b506102466004803603810190610241919061396d565b610907565b60405161025391906139b5565b60405180910390f35b34801561026857600080fd5b50610271610919565b60405161027e9190613a69565b60405180910390f35b34801561029357600080fd5b506102ae60048036038101906102a99190613ac1565b6109ab565b6040516102bb9190613b2f565b60405180910390f35b3480156102d057600080fd5b506102eb60048036038101906102e69190613b76565b610a30565b005b61030760048036038101906103029190613d5a565b610b48565b6040516103149190613e46565b60405180910390f35b34801561032957600080fd5b50610332610db3565b60405161033f9190613a69565b60405180910390f35b34801561035457600080fd5b5061035d610dec565b60405161036a9190613e77565b60405180910390f35b34801561037f57600080fd5b50610388610df9565b6040516103959190613ea1565b60405180910390f35b3480156103aa57600080fd5b506103c560048036038101906103c09190613ebc565b610e03565b005b3480156103d357600080fd5b506103ee60048036038101906103e99190613f0f565b610e63565b6040516103fb9190613ea1565b60405180910390f35b34801561041057600080fd5b5061042b60048036038101906104269190613f3c565b610e82565b6040516104389190613e77565b60405180910390f35b34801561044d57600080fd5b5061046860048036038101906104639190613f69565b610ecb565b005b34801561047657600080fd5b50610491600480360381019061048c9190613b76565b610eff565b60405161049e9190613e77565b60405180910390f35b3480156104b357600080fd5b506104bc610fa4565b6040516104c99190613e77565b60405180910390f35b3480156104de57600080fd5b506104f960048036038101906104f49190613f69565b610fb1565b005b34801561050757600080fd5b50610510610fe5565b005b34801561051e57600080fd5b5061053960048036038101906105349190613ebc565b61105f565b005b34801561054757600080fd5b50610562600480360381019061055d9190613ac1565b61107f565b005b34801561057057600080fd5b5061058b60048036038101906105869190613b76565b6110db565b005b34801561059957600080fd5b506105b460048036038101906105af9190613ac1565b611258565b6040516105c19190613e77565b60405180910390f35b3480156105d657600080fd5b506105df6112c9565b6040516105ec91906139b5565b60405180910390f35b34801561060157600080fd5b5061061c60048036038101906106179190613ac1565b6112e0565b6040516106299190613b2f565b60405180910390f35b34801561063e57600080fd5b5061065960048036038101906106549190613f3c565b611392565b005b34801561066757600080fd5b50610682600480360381019061067d9190613f3c565b6114d8565b60405161068f9190613e77565b60405180910390f35b3480156106a457600080fd5b506106ad611590565b005b3480156106bb57600080fd5b506106d660048036038101906106d19190613fa9565b61160a565b6040516106e39190613b2f565b60405180910390f35b3480156106f857600080fd5b50610713600480360381019061070e9190613f69565b611639565b60405161072091906139b5565b60405180910390f35b34801561073557600080fd5b5061073e6116a3565b60405161074b9190613a69565b60405180910390f35b34801561076057600080fd5b50610769611735565b6040516107769190613ea1565b60405180910390f35b34801561078b57600080fd5b506107a660048036038101906107a19190614015565b61173c565b005b3480156107b457600080fd5b506107cf60048036038101906107ca9190614055565b6118bd565b005b3480156107dd57600080fd5b506107f860048036038101906107f39190613ac1565b61191f565b6040516108059190613a69565b60405180910390f35b34801561081a57600080fd5b5061083560048036038101906108309190613f0f565b6119c6565b6040516108429190613e77565b60405180910390f35b34801561085757600080fd5b506108606119ea565b60405161086d9190613ea1565b60405180910390f35b34801561088257600080fd5b5061089d60048036038101906108989190613f69565b611a0e565b005b3480156108ab57600080fd5b506108b4611a42565b6040516108c19190613ea1565b60405180910390f35b3480156108d657600080fd5b506108f160048036038101906108ec91906140d8565b611a66565b6040516108fe91906139b5565b60405180910390f35b600061091282611be9565b9050919050565b60606002805461092890614147565b80601f016020809104026020016040519081016040528092919081815260200182805461095490614147565b80156109a15780601f10610976576101008083540402835291602001916109a1565b820191906000526020600020905b81548152906001019060200180831161098457829003601f168201915b5050505050905090565b60006109b682611c63565b6109f5576040517f08c379a00000000000000000000000000000000000000000000000000000000081526004016109ec906141eb565b60405180910390fd5b6006600083815260200190815260200160002060009054906101000a900473ffffffffffffffffffffffffffffffffffffffff169050919050565b6000610a3b826112e0565b90508073ffffffffffffffffffffffffffffffffffffffff168373ffffffffffffffffffffffffffffffffffffffff161415610aac576040517f08c379a0000000000000000000000000000000000000000000000000000000008152600401610aa39061427d565b60405180910390fd5b8073ffffffffffffffffffffffffffffffffffffffff16610acb611ccf565b73ffffffffffffffffffffffffffffffffffffffff161480610afa5750610af981610af4611ccf565b611a66565b5b610b39576040517f08c379a0000000000000000000000000000000000000000000000000000000008152600401610b309061430f565b60405180910390fd5b610b438383611cde565b505050565b606060006040518060600160405280600e60008a73ffffffffffffffffffffffffffffffffffffffff1673ffffffffffffffffffffffffffffffffffffffff1681526020019081526020016000205481526020018873ffffffffffffffffffffffffffffffffffffffff168152602001878152509050610bcb8782878787611d97565b610c0a576040517f08c379a0000000000000000000000000000000000000000000000000000000008152600401610c01906143a1565b60405180910390fd5b6001600e60008973ffffffffffffffffffffffffffffffffffffffff1673ffffffffffffffffffffffffffffffffffffffff16815260200190815260200160002054610c5691906143f0565b600e60008973ffffffffffffffffffffffffffffffffffffffff1673ffffffffffffffffffffffffffffffffffffffff168152602001908152602001600020819055507f5845892132946850460bff5a0083f71031bc5bf9aadcd40f1de79423eac9b10b873388604051610ccc93929190614467565b60405180910390a16000803073ffffffffffffffffffffffffffffffffffffffff16888a604051602001610d01929190614529565b604051602081830303815290604052604051610d1d9190614551565b6000604051808303816000865af19150503d8060008114610d5a576040519150601f19603f3d011682016040523d82523d6000602084013e610d5f565b606091505b509150915081610da4576040517f08c379a0000000000000000000000000000000000000000000000000000000008152600401610d9b906145b4565b60405180910390fd5b80935050505095945050505050565b6040518060400160405280600181526020017f310000000000000000000000000000000000000000000000000000000000000081525081565b6000600a80549050905090565b6000600d54905090565b610e14610e0e611ccf565b82611ea0565b610e53576040517f08c379a0000000000000000000000000000000000000000000000000000000008152600401610e4a90614646565b60405180910390fd5b610e5e838383611f7e565b505050565b6000806000838152602001908152602001600020600101549050919050565b6000600e60008373ffffffffffffffffffffffffffffffffffffffff1673ffffffffffffffffffffffffffffffffffffffff168152602001908152602001600020549050919050565b610ed582826121da565b610efa8160016000858152602001908152602001600020611bb990919063ffffffff16565b505050565b6000610f0a836114d8565b8210610f4b576040517f08c379a0000000000000000000000000000000000000000000000000000000008152600401610f42906146d8565b60405180910390fd5b600860008473ffffffffffffffffffffffffffffffffffffffff1673ffffffffffffffffffffffffffffffffffffffff168152602001908152602001600020600083815260200190815260200160002054905092915050565b6000804690508091505090565b610fbb8282612203565b610fe0816001600085815260200190815260200160002061228690919063ffffffff16565b505050565b6110167f65d7a28e3265b37a6474929f336521b332c1681b933f6cb9f3376673440d862a611011611ccf565b611639565b611055576040517f08c379a000000000000000000000000000000000000000000000000000000000815260040161104c9061476a565b60405180910390fd5b61105d6122b6565b565b61107a838383604051806020016040528060008152506118bd565b505050565b61109061108a611ccf565b82611ea0565b6110cf576040517f08c379a00000000000000000000000000000000000000000000000000000000081526004016110c6906147fc565b60405180910390fd5b6110d881612358565b50565b61110c7f9f2df0fed2c77648de5860a4cc508cd0818c85b8b8a1ab4ceeef8d981c8956a6611107611ccf565b611639565b61114b576040517f08c379a00000000000000000000000000000000000000000000000000000000081526004016111429061488e565b60405180910390fd5b60017f000000000000000000000000000000000000000000000000000000000000000061117891906148bc565b61ffff1681600f60009054906101000a900461ffff1661ffff1661119c91906143f0565b11156111dd576040517f08c379a00000000000000000000000000000000000000000000000000000000081526004016111d490614940565b60405180910390fd5b60005b818110156112535761120683600f60009054906101000a900461ffff1661ffff16612469565b6001600f60008282829054906101000a900461ffff1661122691906148bc565b92506101000a81548161ffff021916908361ffff160217905550808061124b90614960565b9150506111e0565b505050565b6000611262610dec565b82106112a3576040517f08c379a000000000000000000000000000000000000000000000000000000000815260040161129a90614a1b565b60405180910390fd5b600a82815481106112b7576112b6614a3b565b5b90600052602060002001549050919050565b6000600c60009054906101000a900460ff16905090565b6000806004600084815260200190815260200160002060009054906101000a900473ffffffffffffffffffffffffffffffffffffffff169050600073ffffffffffffffffffffffffffffffffffffffff168173ffffffffffffffffffffffffffffffffffffffff161415611389576040517f08c379a000000000000000000000000000000000000000000000000000000000815260040161138090614adc565b60405180910390fd5b80915050919050565b6113c37f9f2df0fed2c77648de5860a4cc508cd0818c85b8b8a1ab4ceeef8d981c8956a66113be611ccf565b611639565b611402576040517f08c379a00000000000000000000000000000000000000000000000000000000081526004016113f99061488e565b60405180910390fd5b7f000000000000000000000000000000000000000000000000000000000000000061ffff16600f60009054906101000a900461ffff1661ffff16111561147d576040517f08c379a000000000000000000000000000000000000000000000000000000000815260040161147490614940565b60405180910390fd5b61149b81600f60009054906101000a900461ffff1661ffff16612469565b6001600f60008282829054906101000a900461ffff166114bb91906148bc565b92506101000a81548161ffff021916908361ffff16021790555050565b60008073ffffffffffffffffffffffffffffffffffffffff168273ffffffffffffffffffffffffffffffffffffffff161415611549576040517f08c379a000000000000000000000000000000000000000000000000000000000815260040161154090614b6e565b60405180910390fd5b600560008373ffffffffffffffffffffffffffffffffffffffff1673ffffffffffffffffffffffffffffffffffffffff168152602001908152602001600020549050919050565b6115c17f65d7a28e3265b37a6474929f336521b332c1681b933f6cb9f3376673440d862a6115bc611ccf565b611639565b611600576040517f08c379a00000000000000000000000000000000000000000000000000000000081526004016115f790614c00565b60405180910390fd5b611608612637565b565b600061163182600160008681526020019081526020016000206126da90919063ffffffff16565b905092915050565b600080600084815260200190815260200160002060000160008373ffffffffffffffffffffffffffffffffffffffff1673ffffffffffffffffffffffffffffffffffffffff16815260200190815260200160002060009054906101000a900460ff16905092915050565b6060600380546116b290614147565b80601f01602080910402602001604051908101604052809291908181526020018280546116de90614147565b801561172b5780601f106117005761010080835404028352916020019161172b565b820191906000526020600020905b81548152906001019060200180831161170e57829003601f168201915b5050505050905090565b6000801b81565b611744611ccf565b73ffffffffffffffffffffffffffffffffffffffff168273ffffffffffffffffffffffffffffffffffffffff1614156117b2576040517f08c379a00000000000000000000000000000000000000000000000000000000081526004016117a990614c6c565b60405180910390fd5b80600760006117bf611ccf565b73ffffffffffffffffffffffffffffffffffffffff1673ffffffffffffffffffffffffffffffffffffffff16815260200190815260200160002060008473ffffffffffffffffffffffffffffffffffffffff1673ffffffffffffffffffffffffffffffffffffffff16815260200190815260200160002060006101000a81548160ff0219169083151502179055508173ffffffffffffffffffffffffffffffffffffffff1661186c611ccf565b73ffffffffffffffffffffffffffffffffffffffff167f17307eab39ab6107e8899845ad3d59bd9653f200f220920489ca2b5937696c31836040516118b191906139b5565b60405180910390a35050565b6118ce6118c8611ccf565b83611ea0565b61190d576040517f08c379a000000000000000000000000000000000000000000000000000000000815260040161190490614646565b60405180910390fd5b611919848484846126f4565b50505050565b606061192a82611c63565b611969576040517f08c379a000000000000000000000000000000000000000000000000000000000815260040161196090614cfe565b60405180910390fd5b6000611973612750565b9050600081511161199357604051806020016040528060008152506119be565b8061199d846127e2565b6040516020016119ae929190614da6565b6040516020818303038152906040525b915050919050565b60006119e360016000848152602001908152602001600020612943565b9050919050565b7f9f2df0fed2c77648de5860a4cc508cd0818c85b8b8a1ab4ceeef8d981c8956a681565b611a188282612958565b611a3d816001600085815260200190815260200160002061228690919063ffffffff16565b505050565b7f65d7a28e3265b37a6474929f336521b332c1681b933f6cb9f3376673440d862a81565b6000600760008473ffffffffffffffffffffffffffffffffffffffff1673ffffffffffffffffffffffffffffffffffffffff16815260200190815260200160002060008373ffffffffffffffffffffffffffffffffffffffff1673ffffffffffffffffffffffffffffffffffffffff16815260200190815260200160002060009054906101000a900460ff16905092915050565b60003073ffffffffffffffffffffffffffffffffffffffff163373ffffffffffffffffffffffffffffffffffffffff161415611ba457600080368080601f016020809104026020016040519081016040528093929190818152602001838380828437600081840152601f19601f820116905080830192505050505050509050600080369050905073ffffffffffffffffffffffffffffffffffffffff818301511692505050611ba8565b3390505b90565b611bb58282612981565b5050565b6000611be1836000018373ffffffffffffffffffffffffffffffffffffffff1660001b612a61565b905092915050565b60007f780e9d63000000000000000000000000000000000000000000000000000000007bffffffffffffffffffffffffffffffffffffffffffffffffffffffff1916827bffffffffffffffffffffffffffffffffffffffffffffffffffffffff19161480611c5c5750611c5b82612ad1565b5b9050919050565b60008073ffffffffffffffffffffffffffffffffffffffff166004600084815260200190815260200160002060009054906101000a900473ffffffffffffffffffffffffffffffffffffffff1673ffffffffffffffffffffffffffffffffffffffff1614159050919050565b6000611cd9611afa565b905090565b816006600083815260200190815260200160002060006101000a81548173ffffffffffffffffffffffffffffffffffffffff021916908373ffffffffffffffffffffffffffffffffffffffff160217905550808273ffffffffffffffffffffffffffffffffffffffff16611d51836112e0565b73ffffffffffffffffffffffffffffffffffffffff167f8c5be1e5ebec7d5bd14f71427d1e84f3dd0314c0f7b2291e5b200ac8c7c3b92560405160405180910390a45050565b60008073ffffffffffffffffffffffffffffffffffffffff168673ffffffffffffffffffffffffffffffffffffffff161415611e08576040517f08c379a0000000000000000000000000000000000000000000000000000000008152600401611dff90614e47565b60405180910390fd5b6001611e1b611e1687612bb3565b612c1b565b83868660405160008152602001604052604051611e3b9493929190614e76565b6020604051602081039080840390855afa158015611e5d573d6000803e3d6000fd5b5050506020604051035173ffffffffffffffffffffffffffffffffffffffff168673ffffffffffffffffffffffffffffffffffffffff1614905095945050505050565b6000611eab82611c63565b611eea576040517f08c379a0000000000000000000000000000000000000000000000000000000008152600401611ee190614f2d565b60405180910390fd5b6000611ef5836112e0565b90508073ffffffffffffffffffffffffffffffffffffffff168473ffffffffffffffffffffffffffffffffffffffff161480611f6457508373ffffffffffffffffffffffffffffffffffffffff16611f4c846109ab565b73ffffffffffffffffffffffffffffffffffffffff16145b80611f755750611f748185611a66565b5b91505092915050565b8273ffffffffffffffffffffffffffffffffffffffff16611f9e826112e0565b73ffffffffffffffffffffffffffffffffffffffff1614611ff4576040517f08c379a0000000000000000000000000000000000000000000000000000000008152600401611feb90614fbf565b60405180910390fd5b600073ffffffffffffffffffffffffffffffffffffffff168273ffffffffffffffffffffffffffffffffffffffff161415612064576040517f08c379a000000000000000000000000000000000000000000000000000000000815260040161205b90615051565b60405180910390fd5b61206f838383612c54565b61207a600082611cde565b6001600560008573ffffffffffffffffffffffffffffffffffffffff1673ffffffffffffffffffffffffffffffffffffffff16815260200190815260200160002060008282546120ca9190615071565b925050819055506001600560008473ffffffffffffffffffffffffffffffffffffffff1673ffffffffffffffffffffffffffffffffffffffff168152602001908152602001600020600082825461212191906143f0565b92505081905550816004600083815260200190815260200160002060006101000a81548173ffffffffffffffffffffffffffffffffffffffff021916908373ffffffffffffffffffffffffffffffffffffffff160217905550808273ffffffffffffffffffffffffffffffffffffffff168473ffffffffffffffffffffffffffffffffffffffff167fddf252ad1be2c89b69c2b068fc378daa952ba7f163c4a11628f55a4df523b3ef60405160405180910390a4505050565b6121e382610e63565b6121f4816121ef611ccf565b612c64565b6121fe8383612981565b505050565b61220b611ccf565b73ffffffffffffffffffffffffffffffffffffffff168173ffffffffffffffffffffffffffffffffffffffff1614612278576040517f08c379a000000000000000000000000000000000000000000000000000000000815260040161226f90615117565b60405180910390fd5b6122828282612d01565b5050565b60006122ae836000018373ffffffffffffffffffffffffffffffffffffffff1660001b612de2565b905092915050565b6122be6112c9565b6122fd576040517f08c379a00000000000000000000000000000000000000000000000000000000081526004016122f490615183565b60405180910390fd5b6000600c60006101000a81548160ff0219169083151502179055507f5db9ee0a495bf2e6ff9c91a7834c1ba4fdd244a5e8aa4e537bd38aeae4b073aa612341611ccf565b60405161234e9190613b2f565b60405180910390a1565b6000612363826112e0565b905061237181600084612c54565b61237c600083611cde565b6001600560008373ffffffffffffffffffffffffffffffffffffffff1673ffffffffffffffffffffffffffffffffffffffff16815260200190815260200160002060008282546123cc9190615071565b925050819055506004600083815260200190815260200160002060006101000a81549073ffffffffffffffffffffffffffffffffffffffff021916905581600073ffffffffffffffffffffffffffffffffffffffff168273ffffffffffffffffffffffffffffffffffffffff167fddf252ad1be2c89b69c2b068fc378daa952ba7f163c4a11628f55a4df523b3ef60405160405180910390a45050565b600073ffffffffffffffffffffffffffffffffffffffff168273ffffffffffffffffffffffffffffffffffffffff1614156124d9576040517f08c379a00000000000000000000000000000000000000000000000000000000081526004016124d0906151ef565b60405180910390fd5b6124e281611c63565b15612522576040517f08c379a00000000000000000000000000000000000000000000000000000000081526004016125199061525b565b60405180910390fd5b61252e60008383612c54565b6001600560008473ffffffffffffffffffffffffffffffffffffffff1673ffffffffffffffffffffffffffffffffffffffff168152602001908152602001600020600082825461257e91906143f0565b92505081905550816004600083815260200190815260200160002060006101000a81548173ffffffffffffffffffffffffffffffffffffffff021916908373ffffffffffffffffffffffffffffffffffffffff160217905550808273ffffffffffffffffffffffffffffffffffffffff16600073ffffffffffffffffffffffffffffffffffffffff167fddf252ad1be2c89b69c2b068fc378daa952ba7f163c4a11628f55a4df523b3ef60405160405180910390a45050565b61263f6112c9565b1561267f576040517f08c379a0000000000000000000000000000000000000000000000000000000008152600401612676906152c7565b60405180910390fd5b6001600c60006101000a81548160ff0219169083151502179055507f62e78cea01bee320cd4e420270b5ea74000d11b0c9f74754ebdbfc544b05a2586126c3611ccf565b6040516126d09190613b2f565b60405180910390a1565b60006126e98360000183612ef6565b60001c905092915050565b6126ff848484611f7e565b61270b84848484612f21565b61274a576040517f08c379a000000000000000000000000000000000000000000000000000000000815260040161274190615359565b60405180910390fd5b50505050565b60606010805461275f90614147565b80601f016020809104026020016040519081016040528092919081815260200182805461278b90614147565b80156127d85780601f106127ad576101008083540402835291602001916127d8565b820191906000526020600020905b8154815290600101906020018083116127bb57829003601f168201915b5050505050905090565b6060600082141561282a576040518060400160405280600181526020017f3000000000000000000000000000000000000000000000000000000000000000815250905061293e565b600082905060005b6000821461285c57808061284590614960565b915050600a8261285591906153a8565b9150612832565b60008167ffffffffffffffff81111561287857612877613bc0565b5b6040519080825280601f01601f1916602001820160405280156128aa5781602001600182028036833780820191505090505b5090505b60008514612937576001826128c39190615071565b9150600a856128d291906153d9565b60306128de91906143f0565b60f81b8183815181106128f4576128f3614a3b565b5b60200101907effffffffffffffffffffffffffffffffffffffffffffffffffffffffffffff1916908160001a905350600a8561293091906153a8565b94506128ae565b8093505050505b919050565b6000612951826000016130a9565b9050919050565b61296182610e63565b6129728161296d611ccf565b612c64565b61297c8383612d01565b505050565b61298b8282611639565b612a5d57600160008084815260200190815260200160002060000160008373ffffffffffffffffffffffffffffffffffffffff1673ffffffffffffffffffffffffffffffffffffffff16815260200190815260200160002060006101000a81548160ff021916908315150217905550612a02611ccf565b73ffffffffffffffffffffffffffffffffffffffff168173ffffffffffffffffffffffffffffffffffffffff16837f2f8788117e7eff1d82e926ec794901d17c78024a50270940304540a733656f0d60405160405180910390a45b5050565b6000612a6d83836130ba565b612ac6578260000182908060018154018082558091505060019003906000526020600020016000909190919091505582600001805490508360010160008481526020019081526020016000208190555060019050612acb565b600090505b92915050565b60007f80ac58cd000000000000000000000000000000000000000000000000000000007bffffffffffffffffffffffffffffffffffffffffffffffffffffffff1916827bffffffffffffffffffffffffffffffffffffffffffffffffffffffff19161480612b9c57507f5b5e139f000000000000000000000000000000000000000000000000000000007bffffffffffffffffffffffffffffffffffffffffffffffffffffffff1916827bffffffffffffffffffffffffffffffffffffffffffffffffffffffff1916145b80612bac5750612bab826130dd565b5b9050919050565b6000604051806080016040528060438152602001615805604391398051906020012082600001518360200151846040015180519060200120604051602001612bfe949392919061540a565b604051602081830303815290604052805190602001209050919050565b6000612c25610df9565b82604051602001612c379291906154bc565b604051602081830303815290604052805190602001209050919050565b612c5f838383613157565b505050565b612c6e8282611639565b612cfd57612c938173ffffffffffffffffffffffffffffffffffffffff1660146131af565b612ca18360001c60206131af565b604051602001612cb292919061558b565b6040516020818303038152906040526040517f08c379a0000000000000000000000000000000000000000000000000000000008152600401612cf49190613a69565b60405180910390fd5b5050565b612d0b8282611639565b15612dde57600080600084815260200190815260200160002060000160008373ffffffffffffffffffffffffffffffffffffffff1673ffffffffffffffffffffffffffffffffffffffff16815260200190815260200160002060006101000a81548160ff021916908315150217905550612d83611ccf565b73ffffffffffffffffffffffffffffffffffffffff168173ffffffffffffffffffffffffffffffffffffffff16837ff6391f5c32d9c69d2a47ea670b442974b53935d1edc7fd64eb21e047a839171b60405160405180910390a45b5050565b60008083600101600084815260200190815260200160002054905060008114612eea576000600182612e149190615071565b9050600060018660000180549050612e2c9190615071565b9050818114612e9b576000866000018281548110612e4d57612e4c614a3b565b5b9060005260206000200154905080876000018481548110612e7157612e70614a3b565b5b90600052602060002001819055508387600101600083815260200190815260200160002081905550505b85600001805480612eaf57612eae6155c5565b5b600190038181906000526020600020016000905590558560010160008681526020019081526020016000206000905560019350505050612ef0565b60009150505b92915050565b6000826000018281548110612f0e57612f0d614a3b565b5b9060005260206000200154905092915050565b6000612f428473ffffffffffffffffffffffffffffffffffffffff166133eb565b1561309c578373ffffffffffffffffffffffffffffffffffffffff1663150b7a02612f6b611ccf565b8786866040518563ffffffff1660e01b8152600401612f8d94939291906155f4565b6020604051808303816000875af1925050508015612fc957506040513d601f19601f82011682018060405250810190612fc69190615655565b60015b61304c573d8060008114612ff9576040519150601f19603f3d011682016040523d82523d6000602084013e612ffe565b606091505b50600081511415613044576040517f08c379a000000000000000000000000000000000000000000000000000000000815260040161303b90615359565b60405180910390fd5b805181602001fd5b63150b7a0260e01b7bffffffffffffffffffffffffffffffffffffffffffffffffffffffff1916817bffffffffffffffffffffffffffffffffffffffffffffffffffffffff1916149150506130a1565b600190505b949350505050565b600081600001805490509050919050565b600080836001016000848152602001908152602001600020541415905092915050565b60007f5a05180f000000000000000000000000000000000000000000000000000000007bffffffffffffffffffffffffffffffffffffffffffffffffffffffff1916827bffffffffffffffffffffffffffffffffffffffffffffffffffffffff19161480613150575061314f826133fe565b5b9050919050565b613162838383613478565b61316a6112c9565b156131aa576040517f08c379a00000000000000000000000000000000000000000000000000000000081526004016131a1906156f4565b60405180910390fd5b505050565b6060600060028360026131c29190615714565b6131cc91906143f0565b67ffffffffffffffff8111156131e5576131e4613bc0565b5b6040519080825280601f01601f1916602001820160405280156132175781602001600182028036833780820191505090505b5090507f30000000000000000000000000000000000000000000000000000000000000008160008151811061324f5761324e614a3b565b5b60200101907effffffffffffffffffffffffffffffffffffffffffffffffffffffffffffff1916908160001a9053507f7800000000000000000000000000000000000000000000000000000000000000816001815181106132b3576132b2614a3b565b5b60200101907effffffffffffffffffffffffffffffffffffffffffffffffffffffffffffff1916908160001a905350600060018460026132f39190615714565b6132fd91906143f0565b90505b600181111561339d577f3031323334353637383961626364656600000000000000000000000000000000600f86166010811061333f5761333e614a3b565b5b1a60f81b82828151811061335657613355614a3b565b5b60200101907effffffffffffffffffffffffffffffffffffffffffffffffffffffffffffff1916908160001a905350600485901c9450806133969061576e565b9050613300565b50600084146133e1576040517f08c379a00000000000000000000000000000000000000000000000000000000081526004016133d8906157e4565b60405180910390fd5b8091505092915050565b600080823b905060008111915050919050565b60007f7965db0b000000000000000000000000000000000000000000000000000000007bffffffffffffffffffffffffffffffffffffffffffffffffffffffff1916827bffffffffffffffffffffffffffffffffffffffffffffffffffffffff1916148061347157506134708261358c565b5b9050919050565b6134838383836135f6565b600073ffffffffffffffffffffffffffffffffffffffff168373ffffffffffffffffffffffffffffffffffffffff1614156134c6576134c1816135fb565b613505565b8173ffffffffffffffffffffffffffffffffffffffff168373ffffffffffffffffffffffffffffffffffffffff1614613504576135038382613644565b5b5b600073ffffffffffffffffffffffffffffffffffffffff168273ffffffffffffffffffffffffffffffffffffffff16141561354857613543816137b1565b613587565b8273ffffffffffffffffffffffffffffffffffffffff168273ffffffffffffffffffffffffffffffffffffffff1614613586576135858282613882565b5b5b505050565b60007f01ffc9a7000000000000000000000000000000000000000000000000000000007bffffffffffffffffffffffffffffffffffffffffffffffffffffffff1916827bffffffffffffffffffffffffffffffffffffffffffffffffffffffff1916149050919050565b505050565b600a80549050600b600083815260200190815260200160002081905550600a81908060018154018082558091505060019003906000526020600020016000909190919091505550565b60006001613651846114d8565b61365b9190615071565b9050600060096000848152602001908152602001600020549050818114613740576000600860008673ffffffffffffffffffffffffffffffffffffffff1673ffffffffffffffffffffffffffffffffffffffff168152602001908152602001600020600084815260200190815260200160002054905080600860008773ffffffffffffffffffffffffffffffffffffffff1673ffffffffffffffffffffffffffffffffffffffff168152602001908152602001600020600084815260200190815260200160002081905550816009600083815260200190815260200160002081905550505b6009600084815260200190815260200160002060009055600860008573ffffffffffffffffffffffffffffffffffffffff1673ffffffffffffffffffffffffffffffffffffffff16815260200190815260200160002060008381526020019081526020016000206000905550505050565b60006001600a805490506137c59190615071565b90506000600b60008481526020019081526020016000205490506000600a83815481106137f5576137f4614a3b565b5b9060005260206000200154905080600a838154811061381757613816614a3b565b5b906000526020600020018190555081600b600083815260200190815260200160002081905550600b600085815260200190815260200160002060009055600a805480613866576138656155c5565b5b6001900381819060005260206000200160009055905550505050565b600061388d836114d8565b905081600860008573ffffffffffffffffffffffffffffffffffffffff1673ffffffffffffffffffffffffffffffffffffffff168152602001908152602001600020600083815260200190815260200160002081905550806009600084815260200190815260200160002081905550505050565b6000604051905090565b600080fd5b600080fd5b60007fffffffff0000000000000000000000000000000000000000000000000000000082169050919050565b61394a81613915565b811461395557600080fd5b50565b60008135905061396781613941565b92915050565b6000602082840312156139835761398261390b565b5b600061399184828501613958565b91505092915050565b60008115159050919050565b6139af8161399a565b82525050565b60006020820190506139ca60008301846139a6565b92915050565b600081519050919050565b600082825260208201905092915050565b60005b83811015613a0a5780820151818401526020810190506139ef565b83811115613a19576000848401525b50505050565b6000601f19601f8301169050919050565b6000613a3b826139d0565b613a4581856139db565b9350613a558185602086016139ec565b613a5e81613a1f565b840191505092915050565b60006020820190508181036000830152613a838184613a30565b905092915050565b6000819050919050565b613a9e81613a8b565b8114613aa957600080fd5b50565b600081359050613abb81613a95565b92915050565b600060208284031215613ad757613ad661390b565b5b6000613ae584828501613aac565b91505092915050565b600073ffffffffffffffffffffffffffffffffffffffff82169050919050565b6000613b1982613aee565b9050919050565b613b2981613b0e565b82525050565b6000602082019050613b446000830184613b20565b92915050565b613b5381613b0e565b8114613b5e57600080fd5b50565b600081359050613b7081613b4a565b92915050565b60008060408385031215613b8d57613b8c61390b565b5b6000613b9b85828601613b61565b9250506020613bac85828601613aac565b9150509250929050565b600080fd5b600080fd5b7f4e487b7100000000000000000000000000000000000000000000000000000000600052604160045260246000fd5b613bf882613a1f565b810181811067ffffffffffffffff82111715613c1757613c16613bc0565b5b80604052505050565b6000613c2a613901565b9050613c368282613bef565b919050565b600067ffffffffffffffff821115613c5657613c55613bc0565b5b613c5f82613a1f565b9050602081019050919050565b82818337600083830152505050565b6000613c8e613c8984613c3b565b613c20565b905082815260208101848484011115613caa57613ca9613bbb565b5b613cb5848285613c6c565b509392505050565b600082601f830112613cd257613cd1613bb6565b5b8135613ce2848260208601613c7b565b91505092915050565b6000819050919050565b613cfe81613ceb565b8114613d0957600080fd5b50565b600081359050613d1b81613cf5565b92915050565b600060ff82169050919050565b613d3781613d21565b8114613d4257600080fd5b50565b600081359050613d5481613d2e565b92915050565b600080600080600060a08688031215613d7657613d7561390b565b5b6000613d8488828901613b61565b955050602086013567ffffffffffffffff811115613da557613da4613910565b5b613db188828901613cbd565b9450506040613dc288828901613d0c565b9350506060613dd388828901613d0c565b9250506080613de488828901613d45565b9150509295509295909350565b600081519050919050565b600082825260208201905092915050565b6000613e1882613df1565b613e228185613dfc565b9350613e328185602086016139ec565b613e3b81613a1f565b840191505092915050565b60006020820190508181036000830152613e608184613e0d565b905092915050565b613e7181613a8b565b82525050565b6000602082019050613e8c6000830184613e68565b92915050565b613e9b81613ceb565b82525050565b6000602082019050613eb66000830184613e92565b92915050565b600080600060608486031215613ed557613ed461390b565b5b6000613ee386828701613b61565b9350506020613ef486828701613b61565b9250506040613f0586828701613aac565b9150509250925092565b600060208284031215613f2557613f2461390b565b5b6000613f3384828501613d0c565b91505092915050565b600060208284031215613f5257613f5161390b565b5b6000613f6084828501613b61565b91505092915050565b60008060408385031215613f8057613f7f61390b565b5b6000613f8e85828601613d0c565b9250506020613f9f85828601613b61565b9150509250929050565b60008060408385031215613fc057613fbf61390b565b5b6000613fce85828601613d0c565b9250506020613fdf85828601613aac565b9150509250929050565b613ff28161399a565b8114613ffd57600080fd5b50565b60008135905061400f81613fe9565b92915050565b6000806040838503121561402c5761402b61390b565b5b600061403a85828601613b61565b925050602061404b85828601614000565b9150509250929050565b6000806000806080858703121561406f5761406e61390b565b5b600061407d87828801613b61565b945050602061408e87828801613b61565b935050604061409f87828801613aac565b925050606085013567ffffffffffffffff8111156140c0576140bf613910565b5b6140cc87828801613cbd565b91505092959194509250565b600080604083850312156140ef576140ee61390b565b5b60006140fd85828601613b61565b925050602061410e85828601613b61565b9150509250929050565b7f4e487b7100000000000000000000000000000000000000000000000000000000600052602260045260246000fd5b6000600282049050600182168061415f57607f821691505b6020821081141561417357614172614118565b5b50919050565b7f4552433732313a20617070726f76656420717565727920666f72206e6f6e657860008201527f697374656e7420746f6b656e0000000000000000000000000000000000000000602082015250565b60006141d5602c836139db565b91506141e082614179565b604082019050919050565b60006020820190508181036000830152614204816141c8565b9050919050565b7f4552433732313a20617070726f76616c20746f2063757272656e74206f776e6560008201527f7200000000000000000000000000000000000000000000000000000000000000602082015250565b60006142676021836139db565b91506142728261420b565b604082019050919050565b600060208201905081810360008301526142968161425a565b9050919050565b7f4552433732313a20617070726f76652063616c6c6572206973206e6f74206f7760008201527f6e6572206e6f7220617070726f76656420666f7220616c6c0000000000000000602082015250565b60006142f96038836139db565b91506143048261429d565b604082019050919050565b60006020820190508181036000830152614328816142ec565b9050919050565b7f5369676e657220616e64207369676e617475726520646f206e6f74206d61746360008201527f6800000000000000000000000000000000000000000000000000000000000000602082015250565b600061438b6021836139db565b91506143968261432f565b604082019050919050565b600060208201905081810360008301526143ba8161437e565b9050919050565b7f4e487b7100000000000000000000000000000000000000000000000000000000600052601160045260246000fd5b60006143fb82613a8b565b915061440683613a8b565b9250827fffffffffffffffffffffffffffffffffffffffffffffffffffffffffffffffff0382111561443b5761443a6143c1565b5b828201905092915050565b600061445182613aee565b9050919050565b61446181614446565b82525050565b600060608201905061447c6000830186613b20565b6144896020830185614458565b818103604083015261449b8184613e0d565b9050949350505050565b600081905092915050565b60006144bb82613df1565b6144c581856144a5565b93506144d58185602086016139ec565b80840191505092915050565b60008160601b9050919050565b60006144f9826144e1565b9050919050565b600061450b826144ee565b9050919050565b61452361451e82613b0e565b614500565b82525050565b600061453582856144b0565b91506145418284614512565b6014820191508190509392505050565b600061455d82846144b0565b915081905092915050565b7f46756e6374696f6e2063616c6c206e6f74207375636365737366756c00000000600082015250565b600061459e601c836139db565b91506145a982614568565b602082019050919050565b600060208201905081810360008301526145cd81614591565b9050919050565b7f4552433732313a207472616e736665722063616c6c6572206973206e6f74206f60008201527f776e6572206e6f7220617070726f766564000000000000000000000000000000602082015250565b60006146306031836139db565b915061463b826145d4565b604082019050919050565b6000602082019050818103600083015261465f81614623565b9050919050565b7f455243373231456e756d657261626c653a206f776e657220696e646578206f7560008201527f74206f6620626f756e6473000000000000000000000000000000000000000000602082015250565b60006146c2602b836139db565b91506146cd82614666565b604082019050919050565b600060208201905081810360008301526146f1816146b5565b9050919050565b7f4958534e46543a206d75737420686176652070617573657220726f6c6520746f60008201527f20756e7061757365000000000000000000000000000000000000000000000000602082015250565b60006147546028836139db565b915061475f826146f8565b604082019050919050565b6000602082019050818103600083015261478381614747565b9050919050565b7f4552433732314275726e61626c653a2063616c6c6572206973206e6f74206f7760008201527f6e6572206e6f7220617070726f76656400000000000000000000000000000000602082015250565b60006147e66030836139db565b91506147f18261478a565b604082019050919050565b60006020820190508181036000830152614815816147d9565b9050919050565b7f4958534e46543a206d7573742068617665206d696e74657220726f6c6520746f60008201527f206d696e74000000000000000000000000000000000000000000000000000000602082015250565b60006148786025836139db565b91506148838261481c565b604082019050919050565b600060208201905081810360008301526148a78161486b565b9050919050565b600061ffff82169050919050565b60006148c7826148ae565b91506148d2836148ae565b92508261ffff038211156148e9576148e86143c1565b5b828201905092915050565b7f4958534e46543a204d6178206d696e74206c696d697400000000000000000000600082015250565b600061492a6016836139db565b9150614935826148f4565b602082019050919050565b600060208201905081810360008301526149598161491d565b9050919050565b600061496b82613a8b565b91507fffffffffffffffffffffffffffffffffffffffffffffffffffffffffffffffff82141561499e5761499d6143c1565b5b600182019050919050565b7f455243373231456e756d657261626c653a20676c6f62616c20696e646578206f60008201527f7574206f6620626f756e64730000000000000000000000000000000000000000602082015250565b6000614a05602c836139db565b9150614a10826149a9565b604082019050919050565b60006020820190508181036000830152614a34816149f8565b9050919050565b7f4e487b7100000000000000000000000000000000000000000000000000000000600052603260045260246000fd5b7f4552433732313a206f776e657220717565727920666f72206e6f6e657869737460008201527f656e7420746f6b656e0000000000000000000000000000000000000000000000602082015250565b6000614ac66029836139db565b9150614ad182614a6a565b604082019050919050565b60006020820190508181036000830152614af581614ab9565b9050919050565b7f4552433732313a2062616c616e636520717565727920666f7220746865207a6560008201527f726f206164647265737300000000000000000000000000000000000000000000602082015250565b6000614b58602a836139db565b9150614b6382614afc565b604082019050919050565b60006020820190508181036000830152614b8781614b4b565b9050919050565b7f4958534e46543a206d75737420686176652070617573657220726f6c6520746f60008201527f2070617573650000000000000000000000000000000000000000000000000000602082015250565b6000614bea6026836139db565b9150614bf582614b8e565b604082019050919050565b60006020820190508181036000830152614c1981614bdd565b9050919050565b7f4552433732313a20617070726f766520746f2063616c6c657200000000000000600082015250565b6000614c566019836139db565b9150614c6182614c20565b602082019050919050565b60006020820190508181036000830152614c8581614c49565b9050919050565b7f4552433732314d657461646174613a2055524920717565727920666f72206e6f60008201527f6e6578697374656e7420746f6b656e0000000000000000000000000000000000602082015250565b6000614ce8602f836139db565b9150614cf382614c8c565b604082019050919050565b60006020820190508181036000830152614d1781614cdb565b9050919050565b600081905092915050565b6000614d34826139d0565b614d3e8185614d1e565b9350614d4e8185602086016139ec565b80840191505092915050565b7f2e6a736f6e000000000000000000000000000000000000000000000000000000600082015250565b6000614d90600583614d1e565b9150614d9b82614d5a565b600582019050919050565b6000614db28285614d29565b9150614dbe8284614d29565b9150614dc982614d83565b91508190509392505050565b7f4e61746976654d6574615472616e73616374696f6e3a20494e56414c49445f5360008201527f49474e4552000000000000000000000000000000000000000000000000000000602082015250565b6000614e316025836139db565b9150614e3c82614dd5565b604082019050919050565b60006020820190508181036000830152614e6081614e24565b9050919050565b614e7081613d21565b82525050565b6000608082019050614e8b6000830187613e92565b614e986020830186614e67565b614ea56040830185613e92565b614eb26060830184613e92565b95945050505050565b7f4552433732313a206f70657261746f7220717565727920666f72206e6f6e657860008201527f697374656e7420746f6b656e0000000000000000000000000000000000000000602082015250565b6000614f17602c836139db565b9150614f2282614ebb565b604082019050919050565b60006020820190508181036000830152614f4681614f0a565b9050919050565b7f4552433732313a207472616e73666572206f6620746f6b656e2074686174206960008201527f73206e6f74206f776e0000000000000000000000000000000000000000000000602082015250565b6000614fa96029836139db565b9150614fb482614f4d565b604082019050919050565b60006020820190508181036000830152614fd881614f9c565b9050919050565b7f4552433732313a207472616e7366657220746f20746865207a65726f2061646460008201527f7265737300000000000000000000000000000000000000000000000000000000602082015250565b600061503b6024836139db565b915061504682614fdf565b604082019050919050565b6000602082019050818103600083015261506a8161502e565b9050919050565b600061507c82613a8b565b915061508783613a8b565b92508282101561509a576150996143c1565b5b828203905092915050565b7f416363657373436f6e74726f6c3a2063616e206f6e6c792072656e6f756e636560008201527f20726f6c657320666f722073656c660000000000000000000000000000000000602082015250565b6000615101602f836139db565b915061510c826150a5565b604082019050919050565b60006020820190508181036000830152615130816150f4565b9050919050565b7f5061757361626c653a206e6f7420706175736564000000000000000000000000600082015250565b600061516d6014836139db565b915061517882615137565b602082019050919050565b6000602082019050818103600083015261519c81615160565b9050919050565b7f4552433732313a206d696e7420746f20746865207a65726f2061646472657373600082015250565b60006151d96020836139db565b91506151e4826151a3565b602082019050919050565b60006020820190508181036000830152615208816151cc565b9050919050565b7f4552433732313a20746f6b656e20616c7265616479206d696e74656400000000600082015250565b6000615245601c836139db565b91506152508261520f565b602082019050919050565b6000602082019050818103600083015261527481615238565b9050919050565b7f5061757361626c653a2070617573656400000000000000000000000000000000600082015250565b60006152b16010836139db565b91506152bc8261527b565b602082019050919050565b600060208201905081810360008301526152e0816152a4565b9050919050565b7f4552433732313a207472616e7366657220746f206e6f6e20455243373231526560008201527f63656976657220696d706c656d656e7465720000000000000000000000000000602082015250565b60006153436032836139db565b915061534e826152e7565b604082019050919050565b6000602082019050818103600083015261537281615336565b9050919050565b7f4e487b7100000000000000000000000000000000000000000000000000000000600052601260045260246000fd5b60006153b382613a8b565b91506153be83613a8b565b9250826153ce576153cd615379565b5b828204905092915050565b60006153e482613a8b565b91506153ef83613a8b565b9250826153ff576153fe615379565b5b828206905092915050565b600060808201905061541f6000830187613e92565b61542c6020830186613e68565b6154396040830185613b20565b6154466060830184613e92565b95945050505050565b7f1901000000000000000000000000000000000000000000000000000000000000600082015250565b6000615485600283614d1e565b91506154908261544f565b600282019050919050565b6000819050919050565b6154b66154b182613ceb565b61549b565b82525050565b60006154c782615478565b91506154d382856154a5565b6020820191506154e382846154a5565b6020820191508190509392505050565b7f416363657373436f6e74726f6c3a206163636f756e7420000000000000000000600082015250565b6000615529601783614d1e565b9150615534826154f3565b601782019050919050565b7f206973206d697373696e6720726f6c6520000000000000000000000000000000600082015250565b6000615575601183614d1e565b91506155808261553f565b601182019050919050565b60006155968261551c565b91506155a28285614d29565b91506155ad82615568565b91506155b98284614d29565b91508190509392505050565b7f4e487b7100000000000000000000000000000000000000000000000000000000600052603160045260246000fd5b60006080820190506156096000830187613b20565b6156166020830186613b20565b6156236040830185613e68565b81810360608301526156358184613e0d565b905095945050505050565b60008151905061564f81613941565b92915050565b60006020828403121561566b5761566a61390b565b5b600061567984828501615640565b91505092915050565b7f4552433732315061757361626c653a20746f6b656e207472616e73666572207760008201527f68696c6520706175736564000000000000000000000000000000000000000000602082015250565b60006156de602b836139db565b91506156e982615682565b604082019050919050565b6000602082019050818103600083015261570d816156d1565b9050919050565b600061571f82613a8b565b915061572a83613a8b565b9250817fffffffffffffffffffffffffffffffffffffffffffffffffffffffffffffffff0483118215151615615763576157626143c1565b5b828202905092915050565b600061577982613a8b565b9150600082141561578d5761578c6143c1565b5b600182039050919050565b7f537472696e67733a20686578206c656e67746820696e73756666696369656e74600082015250565b60006157ce6020836139db565b91506157d982615798565b602082019050919050565b600060208201905081810360008301526157fd816157c1565b905091905056fe4d6574615472616e73616374696f6e2875696e74323536206e6f6e63652c616464726573732066726f6d2c62797465732066756e6374696f6e5369676e617475726529a26469706673582212208f39b9ac0d0a74edecf831e3421bb3269d5772458926afe2e03aceafb6c8c89764736f6c634300080a0033454950373132446f6d61696e28737472696e67206e616d652c737472696e672076657273696f6e2c6164647265737320766572696679696e67436f6e74726163742c627974657333322073616c7429",
  "immutableReferences": {
    "3645": [
      {
        "length": 32,
        "start": 4431
      },
      {
        "length": 32,
        "start": 5124
      }
    ]
  },
  "source": "pragma solidity ^0.8.7;\n\nimport \"@openzeppelin/contracts/token/ERC721/ERC721.sol\";\nimport \"@openzeppelin/contracts/token/ERC721/extensions/ERC721Enumerable.sol\";\nimport \"@openzeppelin/contracts/token/ERC721/extensions/ERC721Burnable.sol\";\nimport \"@openzeppelin/contracts/token/ERC721/extensions/ERC721Pausable.sol\";\nimport \"@openzeppelin/contracts/access/AccessControlEnumerable.sol\";\nimport \"@openzeppelin/contracts/utils/Context.sol\";\nimport \"@openzeppelin/contracts/utils/Strings.sol\";\n\n\n\nabstract contract ContextMixin {\n    function msgSender()\n        internal\n        view\n        returns (address payable sender)\n    {\n        if (msg.sender == address(this)) {\n            bytes memory array = msg.data;\n            uint256 index = msg.data.length;\n            assembly {\n                // Load the 32 bytes word from memory with the address on the lower 20 bytes, and mask those.\n                sender := and(\n                    mload(add(array, index)),\n                    0xffffffffffffffffffffffffffffffffffffffff\n                )\n            }\n        } else {\n            sender = payable(msg.sender);\n        }\n        return sender;\n    }\n}\n\ncontract Initializable {\n    bool inited = false;\n\n    modifier initializer() {\n        require(!inited, \"already inited\");\n        _;\n        inited = true;\n    }\n}\n\n/**\n * https://github.com/maticnetwork/pos-portal/blob/master/contracts/common/EIP712Base.sol\n */\ncontract EIP712Base is Initializable {\n    struct EIP712Domain {\n        string name;\n        string version;\n        address verifyingContract;\n        bytes32 salt;\n    }\n\n    string constant public ERC712_VERSION = \"1\";\n\n    bytes32 internal constant EIP712_DOMAIN_TYPEHASH = keccak256(\n        bytes(\n            \"EIP712Domain(string name,string version,address verifyingContract,bytes32 salt)\"\n        )\n    );\n    bytes32 internal domainSeperator;\n\n    // supposed to be called once while initializing.\n    // one of the contractsa that inherits this contract follows proxy pattern\n    // so it is not possible to do this in a constructor\n    function _initializeEIP712(\n        string memory name\n    )\n        internal\n        initializer\n    {\n        _setDomainSeperator(name);\n    }\n\n    function _setDomainSeperator(string memory name) internal {\n        domainSeperator = keccak256(\n            abi.encode(\n                EIP712_DOMAIN_TYPEHASH,\n                keccak256(bytes(name)),\n                keccak256(bytes(ERC712_VERSION)),\n                address(this),\n                bytes32(getChainId())\n            )\n        );\n    }\n\n    function getDomainSeperator() public view returns (bytes32) {\n        return domainSeperator;\n    }\n\n    function getChainId() public view returns (uint256) {\n        uint256 id;\n        assembly {\n            id := chainid()\n        }\n        return id;\n    }\n\n    /**\n     * Accept message hash and returns hash message in EIP712 compatible form\n     * So that it can be used to recover signer from signature signed using EIP712 formatted data\n     * https://eips.ethereum.org/EIPS/eip-712\n     * \"\\\\x19\" makes the encoding deterministic\n     * \"\\\\x01\" is the version byte to make it compatible to EIP-191\n     */\n    function toTypedMessageHash(bytes32 messageHash)\n        internal\n        view\n        returns (bytes32)\n    {\n        return\n            keccak256(\n                abi.encodePacked(\"\\x19\\x01\", getDomainSeperator(), messageHash)\n            );\n    }\n}\n\n/**\n * https://github.com/maticnetwork/pos-portal/blob/master/contracts/common/NativeMetaTransaction.sol\n */\ncontract NativeMetaTransaction is EIP712Base {\n    bytes32 private constant META_TRANSACTION_TYPEHASH = keccak256(\n        bytes(\n            \"MetaTransaction(uint256 nonce,address from,bytes functionSignature)\"\n        )\n    );\n    event MetaTransactionExecuted(\n        address userAddress,\n        address payable relayerAddress,\n        bytes functionSignature\n    );\n    mapping(address => uint256) nonces;\n\n    /*\n     * Meta transaction structure.\n     * No point of including value field here as if user is doing value transfer then he has the funds to pay for gas\n     * He should call the desired function directly in that case.\n     */\n    struct MetaTransaction {\n        uint256 nonce;\n        address from;\n        bytes functionSignature;\n    }\n\n    function executeMetaTransaction(\n        address userAddress,\n        bytes memory functionSignature,\n        bytes32 sigR,\n        bytes32 sigS,\n        uint8 sigV\n    ) public payable returns (bytes memory) {\n        MetaTransaction memory metaTx = MetaTransaction({\n            nonce: nonces[userAddress],\n            from: userAddress,\n            functionSignature: functionSignature\n        });\n        require(\n            verify(userAddress, metaTx, sigR, sigS, sigV),\n            \"Signer and signature do not match\"\n        );\n\n        // increase nonce for user (to avoid re-use)\n        nonces[userAddress] = nonces[userAddress] + 1;\n\n        emit MetaTransactionExecuted(\n            userAddress,\n            payable(msg.sender),\n            functionSignature\n        );\n\n        // Append userAddress and relayer address at the end to extract it from calling context\n        (bool success, bytes memory returnData) = address(this).call(\n            abi.encodePacked(functionSignature, userAddress)\n        );\n        require(success, \"Function call not successful\");\n\n        return returnData;\n    }\n\n    function hashMetaTransaction(MetaTransaction memory metaTx)\n        internal\n        pure\n        returns (bytes32)\n    {\n        return\n            keccak256(\n                abi.encode(\n                    META_TRANSACTION_TYPEHASH,\n                    metaTx.nonce,\n                    metaTx.from,\n                    keccak256(metaTx.functionSignature)\n                )\n            );\n    }\n\n    function getNonce(address user) public view returns (uint256 nonce) {\n        nonce = nonces[user];\n    }\n\n    function verify(\n        address signer,\n        MetaTransaction memory metaTx,\n        bytes32 sigR,\n        bytes32 sigS,\n        uint8 sigV\n    ) internal view returns (bool) {\n        require(signer != address(0), \"NativeMetaTransaction: INVALID_SIGNER\");\n        return\n            signer ==\n            ecrecover(\n                toTypedMessageHash(hashMetaTransaction(metaTx)),\n                sigV,\n                sigR,\n                sigS\n            );\n    }\n}\n\n\ncontract IxsNft is Context, AccessControlEnumerable, ERC721Enumerable, ERC721Burnable, ERC721Pausable, ContextMixin, NativeMetaTransaction {\n\n    using Strings for uint256;\n\n    bytes32 public constant MINTER_ROLE = keccak256(\"MINTER_ROLE\");\n    bytes32 public constant PAUSER_ROLE = keccak256(\"PAUSER_ROLE\");\n\n    uint16 private _tokenIdTracker;\n    uint16 private immutable MAX_TOKEN_NUMBER;\n    \n    string private _baseTokenURI;\n\n    /**\n     * @dev Grants `DEFAULT_ADMIN_ROLE`, `MINTER_ROLE` and `PAUSER_ROLE` to the\n     * account that deploys the contract.\n     * Token URIs will be autogenerated based on `baseURI` and their token IDs.\n     */\n    constructor(\n        string memory name,\n        string memory symbol,\n        string memory baseTokenURI,\n        uint16 _max_token_number\n    ) ERC721(name, symbol) {\n        _baseTokenURI = baseTokenURI;\n        _tokenIdTracker = 1;\n        MAX_TOKEN_NUMBER = _max_token_number;\n        _setupRole(DEFAULT_ADMIN_ROLE, _msgSender());\n        _setupRole(MINTER_ROLE, _msgSender());\n        _setupRole(PAUSER_ROLE, _msgSender());\n        _initializeEIP712(name);\n    }\n\n    function _baseURI() internal view virtual override returns (string memory) {\n        return _baseTokenURI;\n    }\n\n    /**\n     * @dev Creates a new token for `to`. Its token ID will be automatically\n     * assigned (and available on the emitted {IERC721-Transfer} event), and the token\n     * URI autogenerated based on the base URI passed at construction.\n     */\n    function mint(address to) public virtual {\n        require(hasRole(MINTER_ROLE, _msgSender()), \"IXSNFT: must have minter role to mint\");\n        require(_tokenIdTracker <= MAX_TOKEN_NUMBER, \"IXSNFT: Max mint limit\");\n        _mint(to, _tokenIdTracker);\n        _tokenIdTracker += 1;\n    }\n\n    function batchMint(address to, uint256 number) public virtual {\n        require(hasRole(MINTER_ROLE, _msgSender()), \"IXSNFT: must have minter role to mint\");\n        require(_tokenIdTracker + number <= MAX_TOKEN_NUMBER + 1, \"IXSNFT: Max mint limit\");\n        for (uint256 i = 0; i < number; i ++){\n            _mint(to, _tokenIdTracker);\n            _tokenIdTracker += 1;\n        }\n    }\n\n    /**\n     * @dev Pauses all token transfers.\n     */\n    function pause() public virtual {\n        require(hasRole(PAUSER_ROLE, _msgSender()), \"IXSNFT: must have pauser role to pause\");\n        _pause();\n    }\n\n    /**\n     * @dev Unpauses all token transfers.\n     */\n    function unpause() public virtual {\n        require(hasRole(PAUSER_ROLE, _msgSender()), \"IXSNFT: must have pauser role to unpause\");\n        _unpause();\n    }\n\n    function _beforeTokenTransfer(\n        address from,\n        address to,\n        uint256 tokenId\n    ) internal virtual override(ERC721, ERC721Enumerable, ERC721Pausable) {\n        super._beforeTokenTransfer(from, to, tokenId);\n    }\n\n    function supportsInterface(bytes4 interfaceId)\n        public\n        view\n        virtual\n        override(AccessControlEnumerable, ERC721, ERC721Enumerable)\n        returns (bool)\n    {\n        return super.supportsInterface(interfaceId);\n    }\n\n    function _msgSender()\n        internal\n        override\n        view\n        returns (address sender)\n    {\n        return ContextMixin.msgSender();\n    }\n\n    function tokenURI(uint256 tokenId) public view virtual override returns (string memory) {\n        require(_exists(tokenId), \"ERC721Metadata: URI query for nonexistent token\");\n\n        string memory baseURI = _baseURI();\n        return bytes(baseURI).length > 0 ? string(abi.encodePacked(baseURI, tokenId.toString(), '.json')) : \"\";\n    }\n}\n",
  "sourcePath": "/home/abylay/Titanium/Projects/ixs/NFTs/NFT/contracts/IxsNft.sol",
  "compiler": {
    "name": "solc",
    "version": "0.8.10+commit.fc410830.Emscripten.clang"
  },
  "schemaVersion": "3.4.3",
  "updatedAt": "2021-11-25T13:20:53.240Z",
  "networkType": "ethereum",
  "devdoc": {
    "kind": "dev",
    "methods": {
      "approve(address,uint256)": {
        "details": "See {IERC721-approve}."
      },
      "balanceOf(address)": {
        "details": "See {IERC721-balanceOf}."
      },
      "burn(uint256)": {
        "details": "Burns `tokenId`. See {ERC721-_burn}. Requirements: - The caller must own `tokenId` or be an approved operator."
      },
      "constructor": {
        "details": "Grants `DEFAULT_ADMIN_ROLE`, `MINTER_ROLE` and `PAUSER_ROLE` to the account that deploys the contract. Token URIs will be autogenerated based on `baseURI` and their token IDs."
      },
      "getApproved(uint256)": {
        "details": "See {IERC721-getApproved}."
      },
      "getRoleAdmin(bytes32)": {
        "details": "Returns the admin role that controls `role`. See {grantRole} and {revokeRole}. To change a role's admin, use {_setRoleAdmin}."
      },
      "getRoleMember(bytes32,uint256)": {
        "details": "Returns one of the accounts that have `role`. `index` must be a value between 0 and {getRoleMemberCount}, non-inclusive. Role bearers are not sorted in any particular way, and their ordering may change at any point. WARNING: When using {getRoleMember} and {getRoleMemberCount}, make sure you perform all queries on the same block. See the following https://forum.openzeppelin.com/t/iterating-over-elements-on-enumerableset-in-openzeppelin-contracts/2296[forum post] for more information."
      },
      "getRoleMemberCount(bytes32)": {
        "details": "Returns the number of accounts that have `role`. Can be used together with {getRoleMember} to enumerate all bearers of a role."
      },
      "grantRole(bytes32,address)": {
        "details": "Overload {grantRole} to track enumerable memberships"
      },
      "hasRole(bytes32,address)": {
        "details": "Returns `true` if `account` has been granted `role`."
      },
      "isApprovedForAll(address,address)": {
        "details": "See {IERC721-isApprovedForAll}."
      },
      "mint(address)": {
        "details": "Creates a new token for `to`. Its token ID will be automatically assigned (and available on the emitted {IERC721-Transfer} event), and the token URI autogenerated based on the base URI passed at construction."
      },
      "name()": {
        "details": "See {IERC721Metadata-name}."
      },
      "ownerOf(uint256)": {
        "details": "See {IERC721-ownerOf}."
      },
      "pause()": {
        "details": "Pauses all token transfers."
      },
      "paused()": {
        "details": "Returns true if the contract is paused, and false otherwise."
      },
      "renounceRole(bytes32,address)": {
        "details": "Overload {renounceRole} to track enumerable memberships"
      },
      "revokeRole(bytes32,address)": {
        "details": "Overload {revokeRole} to track enumerable memberships"
      },
      "safeTransferFrom(address,address,uint256)": {
        "details": "See {IERC721-safeTransferFrom}."
      },
      "safeTransferFrom(address,address,uint256,bytes)": {
        "details": "See {IERC721-safeTransferFrom}."
      },
      "setApprovalForAll(address,bool)": {
        "details": "See {IERC721-setApprovalForAll}."
      },
      "symbol()": {
        "details": "See {IERC721Metadata-symbol}."
      },
      "tokenByIndex(uint256)": {
        "details": "See {IERC721Enumerable-tokenByIndex}."
      },
      "tokenOfOwnerByIndex(address,uint256)": {
        "details": "See {IERC721Enumerable-tokenOfOwnerByIndex}."
      },
      "tokenURI(uint256)": {
        "details": "See {IERC721Metadata-tokenURI}."
      },
      "totalSupply()": {
        "details": "See {IERC721Enumerable-totalSupply}."
      },
      "transferFrom(address,address,uint256)": {
        "details": "See {IERC721-transferFrom}."
      },
      "unpause()": {
        "details": "Unpauses all token transfers."
      }
    },
    "version": 1
  },
  "userdoc": {
    "kind": "user",
    "methods": {},
    "version": 1
  }
}