{
  "contractName": "NativeMetaTransaction",
  "abi": [
    {
      "anonymous": false,
      "inputs": [
        {
          "indexed": false,
          "internalType": "address",
          "name": "userAddress",
          "type": "address"
        },
        {
          "indexed": false,
          "internalType": "address payable",
          "name": "relayerAddress",
          "type": "address"
        },
        {
          "indexed": false,
          "internalType": "bytes",
          "name": "functionSignature",
          "type": "bytes"
        }
      ],
      "name": "MetaTransactionExecuted",
      "type": "event"
    },
    {
      "inputs": [],
      "name": "ERC712_VERSION",
      "outputs": [
        {
          "internalType": "string",
          "name": "",
          "type": "string"
        }
      ],
      "stateMutability": "view",
      "type": "function"
    },
    {
      "inputs": [],
      "name": "getChainId",
      "outputs": [
        {
          "internalType": "uint256",
          "name": "",
          "type": "uint256"
        }
      ],
      "stateMutability": "view",
      "type": "function"
    },
    {
      "inputs": [],
      "name": "getDomainSeperator",
      "outputs": [
        {
          "internalType": "bytes32",
          "name": "",
          "type": "bytes32"
        }
      ],
      "stateMutability": "view",
      "type": "function"
    },
    {
      "inputs": [
        {
          "internalType": "address",
          "name": "userAddress",
          "type": "address"
        },
        {
          "internalType": "bytes",
          "name": "functionSignature",
          "type": "bytes"
        },
        {
          "internalType": "bytes32",
          "name": "sigR",
          "type": "bytes32"
        },
        {
          "internalType": "bytes32",
          "name": "sigS",
          "type": "bytes32"
        },
        {
          "internalType": "uint8",
          "name": "sigV",
          "type": "uint8"
        }
      ],
      "name": "executeMetaTransaction",
      "outputs": [
        {
          "internalType": "bytes",
          "name": "",
          "type": "bytes"
        }
      ],
      "stateMutability": "payable",
      "type": "function"
    },
    {
      "inputs": [
        {
          "internalType": "address",
          "name": "user",
          "type": "address"
        }
      ],
      "name": "getNonce",
      "outputs": [
        {
          "internalType": "uint256",
          "name": "nonce",
          "type": "uint256"
        }
      ],
      "stateMutability": "view",
      "type": "function"
    }
  ],
  "bytecode": "0x608060405260008060006101000a81548160ff02191690831515021790555034801561002a57600080fd5b50610f5c8061003a6000396000f3fe60806040526004361061004a5760003560e01c80630c53c51c1461004f5780630f7e59701461007f57806320379ee5146100aa5780632d0335ab146100d55780633408e47014610112575b600080fd5b61006960048036038101906100649190610812565b61013d565b6040516100769190610931565b60405180910390f35b34801561008b57600080fd5b506100946103a8565b6040516100a191906109a8565b60405180910390f35b3480156100b657600080fd5b506100bf6103e1565b6040516100cc91906109d9565b60405180910390f35b3480156100e157600080fd5b506100fc60048036038101906100f791906109f4565b6103eb565b6040516101099190610a3a565b60405180910390f35b34801561011e57600080fd5b50610127610434565b6040516101349190610a3a565b60405180910390f35b606060006040518060600160405280600260008a73ffffffffffffffffffffffffffffffffffffffff1673ffffffffffffffffffffffffffffffffffffffff1681526020019081526020016000205481526020018873ffffffffffffffffffffffffffffffffffffffff1681526020018781525090506101c08782878787610441565b6101ff576040517f08c379a00000000000000000000000000000000000000000000000000000000081526004016101f690610ac7565b60405180910390fd5b6001600260008973ffffffffffffffffffffffffffffffffffffffff1673ffffffffffffffffffffffffffffffffffffffff1681526020019081526020016000205461024b9190610b16565b600260008973ffffffffffffffffffffffffffffffffffffffff1673ffffffffffffffffffffffffffffffffffffffff168152602001908152602001600020819055507f5845892132946850460bff5a0083f71031bc5bf9aadcd40f1de79423eac9b10b8733886040516102c193929190610b9c565b60405180910390a16000803073ffffffffffffffffffffffffffffffffffffffff16888a6040516020016102f6929190610c5e565b6040516020818303038152906040526040516103129190610c86565b6000604051808303816000865af19150503d806000811461034f576040519150601f19603f3d011682016040523d82523d6000602084013e610354565b606091505b509150915081610399576040517f08c379a000000000000000000000000000000000000000000000000000000000815260040161039090610ce9565b60405180910390fd5b80935050505095945050505050565b6040518060400160405280600181526020017f310000000000000000000000000000000000000000000000000000000000000081525081565b6000600154905090565b6000600260008373ffffffffffffffffffffffffffffffffffffffff1673ffffffffffffffffffffffffffffffffffffffff168152602001908152602001600020549050919050565b6000804690508091505090565b60008073ffffffffffffffffffffffffffffffffffffffff168673ffffffffffffffffffffffffffffffffffffffff1614156104b2576040517f08c379a00000000000000000000000000000000000000000000000000000000081526004016104a990610d7b565b60405180910390fd5b60016104c56104c08761054a565b6105b2565b838686604051600081526020016040526040516104e59493929190610daa565b6020604051602081039080840390855afa158015610507573d6000803e3d6000fd5b5050506020604051035173ffffffffffffffffffffffffffffffffffffffff168673ffffffffffffffffffffffffffffffffffffffff1614905095945050505050565b6000604051806080016040528060438152602001610ee46043913980519060200120826000015183602001518460400151805190602001206040516020016105959493929190610def565b604051602081830303815290604052805190602001209050919050565b60006105bc6103e1565b826040516020016105ce929190610eac565b604051602081830303815290604052805190602001209050919050565b6000604051905090565b600080fd5b600080fd5b600073ffffffffffffffffffffffffffffffffffffffff82169050919050565b600061062a826105ff565b9050919050565b61063a8161061f565b811461064557600080fd5b50565b60008135905061065781610631565b92915050565b600080fd5b600080fd5b6000601f19601f8301169050919050565b7f4e487b7100000000000000000000000000000000000000000000000000000000600052604160045260246000fd5b6106b082610667565b810181811067ffffffffffffffff821117156106cf576106ce610678565b5b80604052505050565b60006106e26105eb565b90506106ee82826106a7565b919050565b600067ffffffffffffffff82111561070e5761070d610678565b5b61071782610667565b9050602081019050919050565b82818337600083830152505050565b6000610746610741846106f3565b6106d8565b90508281526020810184848401111561076257610761610662565b5b61076d848285610724565b509392505050565b600082601f83011261078a5761078961065d565b5b813561079a848260208601610733565b91505092915050565b6000819050919050565b6107b6816107a3565b81146107c157600080fd5b50565b6000813590506107d3816107ad565b92915050565b600060ff82169050919050565b6107ef816107d9565b81146107fa57600080fd5b50565b60008135905061080c816107e6565b92915050565b600080600080600060a0868803121561082e5761082d6105f5565b5b600061083c88828901610648565b955050602086013567ffffffffffffffff81111561085d5761085c6105fa565b5b61086988828901610775565b945050604061087a888289016107c4565b935050606061088b888289016107c4565b925050608061089c888289016107fd565b9150509295509295909350565b600081519050919050565b600082825260208201905092915050565b60005b838110156108e35780820151818401526020810190506108c8565b838111156108f2576000848401525b50505050565b6000610903826108a9565b61090d81856108b4565b935061091d8185602086016108c5565b61092681610667565b840191505092915050565b6000602082019050818103600083015261094b81846108f8565b905092915050565b600081519050919050565b600082825260208201905092915050565b600061097a82610953565b610984818561095e565b93506109948185602086016108c5565b61099d81610667565b840191505092915050565b600060208201905081810360008301526109c2818461096f565b905092915050565b6109d3816107a3565b82525050565b60006020820190506109ee60008301846109ca565b92915050565b600060208284031215610a0a57610a096105f5565b5b6000610a1884828501610648565b91505092915050565b6000819050919050565b610a3481610a21565b82525050565b6000602082019050610a4f6000830184610a2b565b92915050565b7f5369676e657220616e64207369676e617475726520646f206e6f74206d61746360008201527f6800000000000000000000000000000000000000000000000000000000000000602082015250565b6000610ab160218361095e565b9150610abc82610a55565b604082019050919050565b60006020820190508181036000830152610ae081610aa4565b9050919050565b7f4e487b7100000000000000000000000000000000000000000000000000000000600052601160045260246000fd5b6000610b2182610a21565b9150610b2c83610a21565b9250827fffffffffffffffffffffffffffffffffffffffffffffffffffffffffffffffff03821115610b6157610b60610ae7565b5b828201905092915050565b610b758161061f565b82525050565b6000610b86826105ff565b9050919050565b610b9681610b7b565b82525050565b6000606082019050610bb16000830186610b6c565b610bbe6020830185610b8d565b8181036040830152610bd081846108f8565b9050949350505050565b600081905092915050565b6000610bf0826108a9565b610bfa8185610bda565b9350610c0a8185602086016108c5565b80840191505092915050565b60008160601b9050919050565b6000610c2e82610c16565b9050919050565b6000610c4082610c23565b9050919050565b610c58610c538261061f565b610c35565b82525050565b6000610c6a8285610be5565b9150610c768284610c47565b6014820191508190509392505050565b6000610c928284610be5565b915081905092915050565b7f46756e6374696f6e2063616c6c206e6f74207375636365737366756c00000000600082015250565b6000610cd3601c8361095e565b9150610cde82610c9d565b602082019050919050565b60006020820190508181036000830152610d0281610cc6565b9050919050565b7f4e61746976654d6574615472616e73616374696f6e3a20494e56414c49445f5360008201527f49474e4552000000000000000000000000000000000000000000000000000000602082015250565b6000610d6560258361095e565b9150610d7082610d09565b604082019050919050565b60006020820190508181036000830152610d9481610d58565b9050919050565b610da4816107d9565b82525050565b6000608082019050610dbf60008301876109ca565b610dcc6020830186610d9b565b610dd960408301856109ca565b610de660608301846109ca565b95945050505050565b6000608082019050610e0460008301876109ca565b610e116020830186610a2b565b610e1e6040830185610b6c565b610e2b60608301846109ca565b95945050505050565b600081905092915050565b7f1901000000000000000000000000000000000000000000000000000000000000600082015250565b6000610e75600283610e34565b9150610e8082610e3f565b600282019050919050565b6000819050919050565b610ea6610ea1826107a3565b610e8b565b82525050565b6000610eb782610e68565b9150610ec38285610e95565b602082019150610ed38284610e95565b602082019150819050939250505056fe4d6574615472616e73616374696f6e2875696e74323536206e6f6e63652c616464726573732066726f6d2c62797465732066756e6374696f6e5369676e617475726529a26469706673582212208da9cdcf448be17243bc55cfc28e850167d89fcc22b28e3cfd5d66e97c2f8a7e64736f6c634300080a0033",
  "immutableReferences": {},
  "source": "pragma solidity ^0.8.7;\n\nimport \"@openzeppelin/contracts/token/ERC721/ERC721.sol\";\nimport \"@openzeppelin/contracts/token/ERC721/extensions/ERC721Enumerable.sol\";\nimport \"@openzeppelin/contracts/token/ERC721/extensions/ERC721Burnable.sol\";\nimport \"@openzeppelin/contracts/token/ERC721/extensions/ERC721Pausable.sol\";\nimport \"@openzeppelin/contracts/access/AccessControlEnumerable.sol\";\nimport \"@openzeppelin/contracts/utils/Context.sol\";\nimport \"@openzeppelin/contracts/utils/Strings.sol\";\n\n\n\nabstract contract ContextMixin {\n    function msgSender()\n        internal\n        view\n        returns (address payable sender)\n    {\n        if (msg.sender == address(this)) {\n            bytes memory array = msg.data;\n            uint256 index = msg.data.length;\n            assembly {\n                // Load the 32 bytes word from memory with the address on the lower 20 bytes, and mask those.\n                sender := and(\n                    mload(add(array, index)),\n                    0xffffffffffffffffffffffffffffffffffffffff\n                )\n            }\n        } else {\n            sender = payable(msg.sender);\n        }\n        return sender;\n    }\n}\n\ncontract Initializable {\n    bool inited = false;\n\n    modifier initializer() {\n        require(!inited, \"already inited\");\n        _;\n        inited = true;\n    }\n}\n\n/**\n * https://github.com/maticnetwork/pos-portal/blob/master/contracts/common/EIP712Base.sol\n */\ncontract EIP712Base is Initializable {\n    struct EIP712Domain {\n        string name;\n        string version;\n        address verifyingContract;\n        bytes32 salt;\n    }\n\n    string constant public ERC712_VERSION = \"1\";\n\n    bytes32 internal constant EIP712_DOMAIN_TYPEHASH = keccak256(\n        bytes(\n            \"EIP712Domain(string name,string version,address verifyingContract,bytes32 salt)\"\n        )\n    );\n    bytes32 internal domainSeperator;\n\n    // supposed to be called once while initializing.\n    // one of the contractsa that inherits this contract follows proxy pattern\n    // so it is not possible to do this in a constructor\n    function _initializeEIP712(\n        string memory name\n    )\n        internal\n        initializer\n    {\n        _setDomainSeperator(name);\n    }\n\n    function _setDomainSeperator(string memory name) internal {\n        domainSeperator = keccak256(\n            abi.encode(\n                EIP712_DOMAIN_TYPEHASH,\n                keccak256(bytes(name)),\n                keccak256(bytes(ERC712_VERSION)),\n                address(this),\n                bytes32(getChainId())\n            )\n        );\n    }\n\n    function getDomainSeperator() public view returns (bytes32) {\n        return domainSeperator;\n    }\n\n    function getChainId() public view returns (uint256) {\n        uint256 id;\n        assembly {\n            id := chainid()\n        }\n        return id;\n    }\n\n    /**\n     * Accept message hash and returns hash message in EIP712 compatible form\n     * So that it can be used to recover signer from signature signed using EIP712 formatted data\n     * https://eips.ethereum.org/EIPS/eip-712\n     * \"\\\\x19\" makes the encoding deterministic\n     * \"\\\\x01\" is the version byte to make it compatible to EIP-191\n     */\n    function toTypedMessageHash(bytes32 messageHash)\n        internal\n        view\n        returns (bytes32)\n    {\n        return\n            keccak256(\n                abi.encodePacked(\"\\x19\\x01\", getDomainSeperator(), messageHash)\n            );\n    }\n}\n\n/**\n * https://github.com/maticnetwork/pos-portal/blob/master/contracts/common/NativeMetaTransaction.sol\n */\ncontract NativeMetaTransaction is EIP712Base {\n    bytes32 private constant META_TRANSACTION_TYPEHASH = keccak256(\n        bytes(\n            \"MetaTransaction(uint256 nonce,address from,bytes functionSignature)\"\n        )\n    );\n    event MetaTransactionExecuted(\n        address userAddress,\n        address payable relayerAddress,\n        bytes functionSignature\n    );\n    mapping(address => uint256) nonces;\n\n    /*\n     * Meta transaction structure.\n     * No point of including value field here as if user is doing value transfer then he has the funds to pay for gas\n     * He should call the desired function directly in that case.\n     */\n    struct MetaTransaction {\n        uint256 nonce;\n        address from;\n        bytes functionSignature;\n    }\n\n    function executeMetaTransaction(\n        address userAddress,\n        bytes memory functionSignature,\n        bytes32 sigR,\n        bytes32 sigS,\n        uint8 sigV\n    ) public payable returns (bytes memory) {\n        MetaTransaction memory metaTx = MetaTransaction({\n            nonce: nonces[userAddress],\n            from: userAddress,\n            functionSignature: functionSignature\n        });\n        require(\n            verify(userAddress, metaTx, sigR, sigS, sigV),\n            \"Signer and signature do not match\"\n        );\n\n        // increase nonce for user (to avoid re-use)\n        nonces[userAddress] = nonces[userAddress] + 1;\n\n        emit MetaTransactionExecuted(\n            userAddress,\n            payable(msg.sender),\n            functionSignature\n        );\n\n        // Append userAddress and relayer address at the end to extract it from calling context\n        (bool success, bytes memory returnData) = address(this).call(\n            abi.encodePacked(functionSignature, userAddress)\n        );\n        require(success, \"Function call not successful\");\n\n        return returnData;\n    }\n\n    function hashMetaTransaction(MetaTransaction memory metaTx)\n        internal\n        pure\n        returns (bytes32)\n    {\n        return\n            keccak256(\n                abi.encode(\n                    META_TRANSACTION_TYPEHASH,\n                    metaTx.nonce,\n                    metaTx.from,\n                    keccak256(metaTx.functionSignature)\n                )\n            );\n    }\n\n    function getNonce(address user) public view returns (uint256 nonce) {\n        nonce = nonces[user];\n    }\n\n    function verify(\n        address signer,\n        MetaTransaction memory metaTx,\n        bytes32 sigR,\n        bytes32 sigS,\n        uint8 sigV\n    ) internal view returns (bool) {\n        require(signer != address(0), \"NativeMetaTransaction: INVALID_SIGNER\");\n        return\n            signer ==\n            ecrecover(\n                toTypedMessageHash(hashMetaTransaction(metaTx)),\n                sigV,\n                sigR,\n                sigS\n            );\n    }\n}\n\n\ncontract IxsNft is Context, AccessControlEnumerable, ERC721Enumerable, ERC721Burnable, ERC721Pausable, ContextMixin, NativeMetaTransaction {\n\n    using Strings for uint256;\n\n    bytes32 public constant MINTER_ROLE = keccak256(\"MINTER_ROLE\");\n    bytes32 public constant PAUSER_ROLE = keccak256(\"PAUSER_ROLE\");\n\n    uint16 private _tokenIdTracker;\n    uint16 private immutable MAX_TOKEN_NUMBER;\n    \n    string private _baseTokenURI;\n\n    /**\n     * @dev Grants `DEFAULT_ADMIN_ROLE`, `MINTER_ROLE` and `PAUSER_ROLE` to the\n     * account that deploys the contract.\n     * Token URIs will be autogenerated based on `baseURI` and their token IDs.\n     */\n    constructor(\n        string memory name,\n        string memory symbol,\n        string memory baseTokenURI,\n        uint16 _max_token_number\n    ) ERC721(name, symbol) {\n        _baseTokenURI = baseTokenURI;\n        _tokenIdTracker = 1;\n        MAX_TOKEN_NUMBER = _max_token_number;\n        _setupRole(DEFAULT_ADMIN_ROLE, _msgSender());\n        _setupRole(MINTER_ROLE, _msgSender());\n        _setupRole(PAUSER_ROLE, _msgSender());\n        _initializeEIP712(name);\n    }\n\n    function _baseURI() internal view virtual override returns (string memory) {\n        return _baseTokenURI;\n    }\n\n    /**\n     * @dev Creates a new token for `to`. Its token ID will be automatically\n     * assigned (and available on the emitted {IERC721-Transfer} event), and the token\n     * URI autogenerated based on the base URI passed at construction.\n     */\n    function mint(address to) public virtual {\n        require(hasRole(MINTER_ROLE, _msgSender()), \"IXSNFT: must have minter role to mint\");\n        require(_tokenIdTracker <= MAX_TOKEN_NUMBER, \"IXSNFT: Max mint limit\");\n        _mint(to, _tokenIdTracker);\n        _tokenIdTracker += 1;\n    }\n\n    function batchMint(address to, uint256 number) public virtual {\n        require(hasRole(MINTER_ROLE, _msgSender()), \"IXSNFT: must have minter role to mint\");\n        require(_tokenIdTracker + number <= MAX_TOKEN_NUMBER + 1, \"IXSNFT: Max mint limit\");\n        for (uint256 i = 0; i < number; i ++){\n            _mint(to, _tokenIdTracker);\n            _tokenIdTracker += 1;\n        }\n    }\n\n    /**\n     * @dev Pauses all token transfers.\n     */\n    function pause() public virtual {\n        require(hasRole(PAUSER_ROLE, _msgSender()), \"IXSNFT: must have pauser role to pause\");\n        _pause();\n    }\n\n    /**\n     * @dev Unpauses all token transfers.\n     */\n    function unpause() public virtual {\n        require(hasRole(PAUSER_ROLE, _msgSender()), \"IXSNFT: must have pauser role to unpause\");\n        _unpause();\n    }\n\n    function _beforeTokenTransfer(\n        address from,\n        address to,\n        uint256 tokenId\n    ) internal virtual override(ERC721, ERC721Enumerable, ERC721Pausable) {\n        super._beforeTokenTransfer(from, to, tokenId);\n    }\n\n    function supportsInterface(bytes4 interfaceId)\n        public\n        view\n        virtual\n        override(AccessControlEnumerable, ERC721, ERC721Enumerable)\n        returns (bool)\n    {\n        return super.supportsInterface(interfaceId);\n    }\n\n    function _msgSender()\n        internal\n        override\n        view\n        returns (address sender)\n    {\n        return ContextMixin.msgSender();\n    }\n\n    function tokenURI(uint256 tokenId) public view virtual override returns (string memory) {\n        require(_exists(tokenId), \"ERC721Metadata: URI query for nonexistent token\");\n\n        string memory baseURI = _baseURI();\n        return bytes(baseURI).length > 0 ? string(abi.encodePacked(baseURI, tokenId.toString(), '.json')) : \"\";\n    }\n}\n",
  "sourcePath": "/home/abylay/Titanium/Projects/ixs/NFTs/NFT/contracts/IxsNft.sol",
  "compiler": {
    "name": "solc",
    "version": "0.8.10+commit.fc410830.Emscripten.clang"
  },
  "schemaVersion": "3.4.3",
  "updatedAt": "2021-11-25T13:11:44.278Z",
  "devdoc": {
    "kind": "dev",
    "methods": {},
    "version": 1
  },
  "userdoc": {
    "kind": "user",
    "methods": {},
    "notice": "https://github.com/maticnetwork/pos-portal/blob/master/contracts/common/NativeMetaTransaction.sol",
    "version": 1
  }
}